:06000000D1EF06F0120032
:0600080004EF08F01200F5
:100018000CEF08F012001DEE00F02DEE00F0F86A6B
:06002800EDEF06F01200EE
:1000300000003E0E006E016AFC0E026E036A046A46
:10004000076808680968066A1200D9CFE6FFE1CFA1
:10005000D9FFE65204501EE1040108BF1AD0400E39
:10006000E66E600EE66E000EE66E95EC06F0E5526A
:10007000E552E552010E046EDF6A400EDF5C09E2D4
:10008000DF50EA6AA00FE96E000EEA22EF6ADF2A6B
:10009000F4D717D100016051080A01E10DD10F0A10
:1000A00001E1D3D0010A01E1CAD0030A67E0010AE5
:1000B00058E0070A44E0010A01E003D10001020E02
:1000C000A06F00013A0EA16F0001010EA26F0001A6
:1000D000010EA36F0001A46B100EA56FA66BA76B9A
:1000E00001C0A8F002C0A9F003C0AAF0100E0001E0
:1000F000A95F000E0001AA5B0001AB6B0001030EBB
:10010000AC6F0001F80EAD6FAE69AF6BB06B000164
:10011000080EB16FB26BB36BB46B0001B56904012B
:100120000CBF0CD0400EE66EA00EE66E000EE66E22
:100130005BEC06F0E552E552E552046AC2D00001DC
:10014000615107E13F0E006EF80E016E0268036A0E
:1001500006D03E0E006E016AFC0E026E036A046A4F
:10016000B0D0040E056E0028055C06E20400AED88F
:10017000F0EC04F0052AF7D7046AA3D0E868071862
:1001800005E1E868081802E1E868091806E161C0BD
:1001900007F062C008F063C009F007500001611960
:1001A00008E108500001621904E1095000016319D7
:1001B00000E143E1DF6A00016551DF5C3EE2000ED1
:1001C000075C100E0858000E09582CE300285B6EDF
:1001D0005C6A0A0ED8905B365C36E806FBE15D6A25
:1001E0005CBE5D685B50075C5C5008585D50095808
:1001F00019E23A0E0001D8806555DF24EA6A660FDD
:10020000E96E000EEA22EF50E66E0650E96EEA6AE9
:10021000E9BEEA680A0EE926000EEA22E552E75036
:10022000EF6E062A072A000E0822000E09223A0E57
:10023000065C01E15ED8DF2ABED7046A42D059D8F5
:10024000076808680968046A3CD00001070EA06FBF
:1002500061C0A1F062C0A2F063C0A3F064C0A4F0CA
:1002600065C0A5F061C0F6FF62C0F7FF63C0F8FF8C
:10027000DF6A00016551DF5C0FE209003A0E000100
:10028000D8806555DF24EA6AA60FE96E000EEA22DF
:10029000F5CFEFFFDF2AEDD704010CBF0CD0400EE5
:1002A000E66EA00EE66E000EE66E5BEC06F0E55222
:1002B000E552E552046A05D06592656A68D8FF0088
:1002C00000D0E552E552E7CFD9FF1200F66A05509B
:1002D000F76EF86AD890F736F836F736F836140E17
:1002E000A66EF29E550EA76EAA0EA76EA682A694C3
:1002F0001200D9CFE6FFE1CFD9FFE652DF6A000E48
:10030000E76E0618E8AE02D0063403D0E750D88076
:10031000065436E206505B6E5C6A5D6A5BAE02D0E4
:100320005C685D685B50075CF66E5C500858F76E61
:100330005D500958F86EDF50EA6A0A0FE96E000E48
:10034000EA22EF50F56E0D00DF2A0606065009E09E
:10035000DF50EA6A0A0FE96E000EEA22EF50F56EEE
:1003600001D0F5680C00DF2A240EA66EF29E550E11
:10037000A76EAA0EA76EA682065001E00606BFD79A
:10038000A694066AE552E552E7CFD9FF1200D9CF0D
:10039000E6FFE1CFD9FFE652DF6AFF0EDF5C0AE23B
:1003A000E868E85005E0E80600D000D000D0F9D7B2
:1003B000DF2AF3D7E552E552E7CFD9FF1200D9CFB4
:1003C000E6FFE1CFD9FFE652645032E162960401C4
:1003D00000513C0BE842E8420D0828E1180E0219D2
:1003E00023E1040E031920E1100E026F040E036FC7
:1003F000DF6ADF505B6E5C6A080E5B5C000E5C5867
:1004000013E2DF50EA6A180FE96E040EEA22EF5099
:10041000E66EDF50EA6A100FE96E040EEA22E5523A
:10042000E750EF6EDF2AE5D711D80AD046D808D0BA
:10043000040E645C03E162965CD802D0000E01D029
:10044000010EE552E552E7CFD9FF1200D9CFE6FF02
:10045000E1CFD9FFE652040104BF046B556A516A2B
:10046000526A536A546A87EC03F0DF6ADF505B6EAE
:100470005C6A010E5B5C000E5C5819E2525017E199
:10048000F76ADF34FE0BF736F66E5A0EF6260F0EBD
:10049000F7220900F5CF5BF00800F5CF5CF004D03F
:1004A0005CC0FAFF5B50F96EFBDFDF2ADFD7EDD8C7
:1004B000E552E552E7CFD9FF1200020E515C0EE182
:1004C000A7D80401180E026F040E036F080E016F07
:1004D00000BD02D0C80E0BD0880E09D014D904017B
:1004E000080E016F100E026F040E036F8C0E006F6A
:1004F0001200040E575C0AE112C438FF0F01385194
:10050000000802E2050E01D0030E576E51040FE100
:1005100010D8020E555C03E10401840E06D00401DC
:1005200004BD02D0C80E01D0880E046F120083EF04
:1005300003F0D9CFE6FFE1CFD9FF020EE126080E86
:10054000535C000E54580DE253C0DEFF54C0DDFF73
:10055000555002E1010E03D0550406E1020E556E1E
:1005600003D0080EDE6EDD6A040104930491010ECF
:10057000DB500413DFCF05F4DE50535EDD50545AD8
:100580000001180EE26F040EE36F58A21CD0D9CF01
:10059000E9FFDACFEAFFEE50ED1030E0E0C0F6FF01
:1005A000E1C0F7FF0800F550E2C0E9FFE3C0EAFF51
:1005B000EF6EE22B000EE323E02BE123DF06010EBA
:1005C000E6E2DB06E4D7D9CFE9FFDACFEAFFEE5067
:1005D000ED1014E0E0C0E9FFE1C0EAFFEF50E2C037
:1005E000E9FFE3C0EAFFEF6EE22B000EE323E02B0E
:1005F000E123DF06010EE7E2DB06E5D7020EE15C50
:1006000002E2E16AE552E16EE552E7CFD9FF12005E
:10061000D9CFE6FFE1CFD9FF020EE126030E040198
:100620000015E76E010EE7CFDBFF01C4DFFFDE50F0
:100630005326DD5054220001180EE06F040EE16FC6
:10064000D9CFE9FFDACFEAFFEE50ED1014E0E0C0B9
:10065000E9FFE1C0EAFFEF50E2C0E9FFE3C0EAFFD3
:10066000EF6EE22B000EE323E02BE123DF06010E09
:10067000E7E2DB06E5D7020EE15C02E2E16AE55261
:10068000E16EE552E7CFD9FF1200659852500BE1B9
:100690000401080E016F100E026F040E036F840E2A
:1006A000006F04011ED0040110AF1DD05350165D21
:1006B0005450175904E216C453F017C454F039DFEC
:1006C000010E516E0401080E016F100E026F040E30
:1006D000036F800E006F0401180E066F040E076F83
:1006E000C80E046F1200020E516E0401056BC80E95
:1006F000046F0401080E016F180E026F040E036FE1
:10070000C80E006F1200516A0401046B120004014C
:100710001051600BE842E842E842E842E842000932
:1007200001E012001151070A43E00B0A41E0070AF9
:1007300034E0010A24E00B0A20E0020A1EE0030A6A
:100740001AE0080A10E0010A0CE00F0A08E0030AA8
:1007500001E01200010E526E040E576E1200D9EF26
:1007600003F029EF04F0010E526E0001590EE06F04
:10077000000EE16F0ED04DEF04F08EEF04F0010E8D
:10078000526E14510001E06FE16B5A0EE027000E2B
:10079000E1235892010E536E1200010E526E145155
:1007A000EA6A5A0FE96E000EEA2212C4EFFF120045
:1007B0001200800E0401105D4BE11351030A2DE07D
:1007C000010A0BE0030A43E1010E526E00019A0E8A
:1007D000E06F0E0EE16F120E38D0010E526E125104
:1007E000F66EF76AD890F636F736500EF6260F0EEC
:1007F000F7220900F5CFE0F00A00F5CFE1F0020E94
:100800000001F76AE025F66EE151F7220900F5CF05
:1008100053F00A00F5CF54F01AD0010E526E125167
:10082000F66EF76AD890F636F736540EF6260F0EA7
:10083000F7220900F5CFE0F00A00F5CFE1F0E0C0C3
:10084000F6FFE1C0F7FF0800F550536E546A588276
:100850001200010E526E0F0EE66E270EE66E0F0EA0
:10086000E66EC9EC05F0E552E552E552010EE66E82
:100870005A0EE66E000EE66EC9EC05F0E552E55242
:10088000E55212C459F00401125103E1050E576EEE
:100890001200060E576E46EF06F00401186B196B36
:1008A000040110511F0B020A0EE0030A09E0010ABD
:1008B0002AE1010E526E58A026D00401188323D0DD
:1008C000010E526E20D0010E526E14510F0B080D06
:1008D000F3505C6A000F5B6E040E5C221451800BB7
:1008E00001E0010E040DF35000015B24E26F000EE5
:1008F0005C20E36FE2C0E9FFEA6EEF50040B03E017
:100900000401010E186F520408E10001180EE06F97
:10091000040EE16F5892020E536E1200040112058C
:100920000CE110511F0B000908E1010E526E030E7D
:10093000115D02E1588001D05890125134E11051FC
:100940001F0B020830E114510F0B00092CE0010EBF
:10095000526E14510F0B080DF3505C6A000F5B6E62
:10096000040E5C221451800B01E0010E040DF350C3
:1009700000015B24E26F000E5C20E36F030E0401B4
:10098000115D02E1840E03D014AF07D0400EE2C027
:10099000E9FFE3C0EAFFEF6E1200880EE2C0E9FF54
:1009A000E3C0EAFFEF6E120065A60CD8570409E118
:1009B00065BA07D0626A0F01366B36813689020E3E
:1009C000576E1200656A0F01366B6586010E576E11
:1009D0001200656A0F01366B576A1200E9EF04F0E6
:1009E000575001E112006250040B05E00F0136512F
:1009F000040B01E083D865B212006250010B05E0E0
:100A00000F013651010B01E093D86250100B05E045
:100A10000F013651100B01E01FD86250200B05E08A
:100A20000F013651200B01E071D8030E575C01E233
:100A30001200566A040E565C0EE26250080B0BE080
:100A40000F013651080B07E0DFEC01F0000901E16E
:100A50006296562AEFD71200D9CFE6FFE1CFD9FF31
:100A6000020EE12636CFDFFF0F01040E366F6298CB
:100A700065828C50040B01E0010E5B6E8C50080BFC
:100A800001E0010E5B10E76E010EE7CFDBFF8C96F5
:100A90008C94A198A0880300A150100B05E1D050C0
:100AA000080B02E10300F8D7A098DF500F013613BE
:100AB000010EDB50E8B08C86E8A08C96010EDB506E
:100AC000E8B08C84E8A08C94D50E4F6E020E506E68
:100AD0004FC05BF050C05CF04F06000E505A5B50A8
:100AE0005C1002E00400F4D7020EE15C02E2E16A6D
:100AF000E552E16EE552E7CFD9FF120065920F0192
:100B0000369562A402D06294FCD712000F0126A190
:100B10000DD0800E0401005D07E1840E0401045D28
:100B200003E104018C0E006F0F012691629A1200FE
:100B3000636A626A0F019F0E376F0F017B0E366F7B
:100B40000F01386B0F0EE66E270EE66E0F0EE66E87
:100B500020D8E552E552E5520F01160E266F62A627
:100B600005D0629600D000D00000F9D7659883ECDC
:100B700003F00401080E016F0401100E026F040E51
:100B8000036F04018C0E006F5890596A030E576E64
:100B90001200D9CFE6FFE1CFD9FFFD0EDBCFE9FF91
:100BA000FE0EDBCFEAFFFC0EDB5004E0EE6AFC0E2B
:100BB000DB06F9D7E552E7CFD9FF12000401105147
:100BC0001F0B010801E01200145101E01200060E93
:100BD000115D21E11351230A1DE0010A0DE0030A12
:100BE00019E1020E526E590405E10001BE0EE06FDC
:100BF0000E0EE16F090E0CD0020E526E590405E183
:100C00000001330EE06F0F0EE16F590403E11D0E7A
:100C1000536E546A588204011051600BE842E84256
:100C2000E842E842E842010801E0120011510B0AD3
:100C300026E0080A19E0090A12E0080A09E00B0A8E
:100C400005E0080A01E0120044EF06F045EF06F067
:100C5000020E526E00014A0EE06F000E0BD0020E23
:100C6000526E13C44AF01200020E526E00014B0E77
:100C7000E06F000EE16F5892010E536E1200020EEB
:100C8000526E12C44BF01200120012004C6A0F0197
:100C90001E0E276F0401400E096F200E0A6F040E0E
:100CA0000B6F880E086F0401600E0E6F040E0F6F3D
:100CB000400E0C6F1200D9CFE6FFE1CFD9FFE6520C
:100CC000FC0EDB50400805E2400EF36EFC0EF3CF45
:100CD000DBFFDF6AFC0EDB50DF5C19E2DF50E76E02
:100CE000FD0EDBCFE9FFFE0EDBCFEAFFE750E92682
:100CF000000EEA22EF50E66EDF50EA6A600FE96EFE
:100D0000040EEA22E552E750EF6EDF2AE3D7FC0E2D
:100D1000DBCF0DF4400E04010C170C7D880E0C1374
:100D2000E552E552E7CFD9FF1200D9CFE6FFE1CF78
:100D3000D9FF4C6A040108BF2FD0FC0EDBCF5BF05B
:100D40000951D8805B5403E2FC0E09C4DBFF4C6AF6
:100D5000FC0EDB504C5C19E24C50EA6A200FE96E45
:100D6000040EEA22EF50E66E4C50E76EFD0EDBCF2C
:100D7000E9FFFE0EDBCFEAFFE750E926000EEA228C
:100D8000E552E750EF6E4C2AE3D70401400E096F9D
:100D90000817087D880E08134C50E552E7CFD9FF9D
:100DA00012001DEE00F02DEE00F0F86AF66A100E4B
:100DB000F76E0800F550FF0808E1010EF66E100E00
:100DC000F76E0800F550FF0806E080AE02D000EF95
:100DD00008F080AEFED701D812000DD8040034D838
:100DE00037D8060E575C05E16550020B02E125EC91
:100DF00000F0F4D71200600ED36E9B8C580E4F6E2D
:100E0000020E506E4FC05BF050C05CF04F06000EFB
:100E1000505A5B505C10F6E165A604D06592656A95
:100E2000C7EC01F00F01140E396F576A586A596AFE
:100E300019EC00F04D6A4E6A8C968C9495969594B8
:100E40000F01486B496B1200D4EC04F0F0EF04F092
:100E50004D504E1004E1100E4D6E270E4E6E4D0695
:100E6000000E4E5A060E575C02E28C868C94060EDB
:100E7000575C12E14D504E100FE10001E65102E1C6
:100E80008C868C94030EE65D02E18C968C84E62BB6
:100E9000E651030801E2E66B1200120100020000B5
:100EA0000008D8043C0002000102000109022900E8
:100EB000010100C032090400000203000000092102
:100EC00011010001221D00070581034000010705F3
:100ED00001034000010403090434034D0069006369
:100EE0000072006F00630068006900700020005409
:100EF000006500630068006E006F006C006F0067A3
:100F0000007900200049006E0063002E002603488F
:100F100000490044002000550053004200200042D8
:100F2000006F006F0074006C006F0061006400656A
:100F30000072000600FF0901A101190129401500F6
:100F400026FF00750895408100190129409100C0D5
:100F5000AC0EAC0ED50ED90E0D0FBC0BC00EF36E41
:100F600000EE00F00E0E01D81200EA6002D0EE6A28
:0C0F7000FCD7F350E9601200EE6AFCD7D9
:061000002CEF42F012008B
:061008004AEF2AF012007D
:0610180022EF08F01200B7
:10102A000200BC84000000050000E1000000BA8450
:10103A000000B90E000002000000D8CFE4FFE0CFA4
:10104A00E4FFE46EDACFE4FFE2CFDAFFE9CFE4FFB0
:10105A00EACFE4FFF3CFE4FFF4CFE4FFE652D9CFBF
:10106A00E6FFE1CFD9FF040EE126020EDB6A030E8A
:10107A00DB6AA4A636D3A4960E01002B0E01AB514F
:10108A000E01005D01E2A4D10E01006B0E01A9510F
:10109A00EA6A310FE96E0E0EEA22EF500E01EA6A91
:1010AA00AC25E96EAD51EA22EF6A79907B6A7A6AD9
:1010BA000E01A92B0E01AA510E01A95D02E30E0130
:1010CA00A96B0E01A951E96EEA6AD890E936EA36A7
:1010DA00010EE9260E0EEA22EE50ED1001E178D15A
:1010EA000E01A951E96EEA6AD890E936EA36490E44
:1010FA00E9260E0EEA22EECF50F0EFCF51F00E01A4
:10110A00A951E96EEA6AD890E936EA36010EE9266B
:10111A000E0EEA22EECF52F0EFCF53F05250501893
:10112A0002E15350511801E113D10E01A951E96EA0
:10113A00EA6AD890E936EA36790EE9260E0EEA22EC
:10114A00EE50ED101FE10E01A951E96EEA6AD8903E
:10115A00E936EA36490EE9260E0EEA22EECF50F0BB
:10116A00EFCF51F00E01A951E96EEA6AD890E9363B
:10117A00EA36010EE9260E0EEA2250C0EEFF51C0F1
:10118A00EDFFE6D00E01A951E96EEA6AD890E93678
:10119A00EA36490EE9260E0EEA22EECF52F0EFCFDA
:1011AA0053F00E01A951E96EEA6AD890E936EA3697
:1011BA00010EE9260E0EEA22EE50525C506EEE50F7
:1011CA005358516E020E50C0DBFF030E51C0DBFFB5
:1011DA00020EDBCF50F0030EDBCF51F0513404E2A4
:1011EA0050500008000E515458E2020EDBCF50F066
:1011FA00030EDBCF51F00E01A951E96EEA6AD890CD
:10120A00E936EA36790EE9260E0EEA22EECF52F0D8
:10121A00EFCF53F05050525C515053581FE20E0119
:10122A00A951E96EEA6AD890E936EA36790EE926D2
:10123A000E0EEA22EECF50F0EFCF51F00E01A95177
:10124A00E96EEA6AD890E936EA36010EE9260E0E08
:10125A00EA225050EE265150ED221ED00E01A9511D
:10126A00E96EEA6AD890E936EA36490EE9260E0EA0
:10127A00EA22EECF50F0EFCF51F00E01A951E96EFC
:10128A00EA6AD890E936EA36010EE9260E0EEA2213
:10129A0050C0EEFF51C0EDFF5BD0020EDBCF50F025
:1012AA00030EDBCF51F0506C511E000E51220E017D
:1012BA00A951E96EEA6AD890E936EA36790EE92642
:1012CA000E0EEA22EECF52F0EFCF53F05050525C9E
:1012DA00515053581FE20E01A951E96EEA6AD8909B
:1012EA00E936EA36790EE9260E0EEA22EECF50F0FA
:1012FA00EFCF51F00E01A951E96EEA6AD890E936AA
:10130A00EA36010EE9260E0EEA225050EE5E5150E0
:10131A00ED5A1ED00E01A951E96EEA6AD890E93653
:10132A00EA36490EE9260E0EEA22EECF50F0EFCF4A
:10133A0051F00E01A951E96EEA6AD890E936EA3607
:10134A00010EE9260E0EEA2250C0EEFF51C0EDFF53
:10135A000E01A951EA6A310FE96E0E0EEA22EF5028
:10136A000E01EA6AAC25E96EAD51EA22120EEF6E61
:10137A00F29E0E01A951E96EEA6AD890E936EA3678
:10138A00010EE9260E0EEA22EECF50F0EFCF51F011
:10139A0051C050F0516A5050B66E0E01A951E96E13
:1013AA00EA6AD890E936EA36010EE9260E0EEA22F2
:1013BA00EECF50F0EFCF51F05050B56EF00EB4149E
:1013CA000009B46EF00EB4140909B46E7980F28E75
:1013DA00000ED8801B54000E1C542EE2292A000E3F
:1013EA002A221B50295C1C502A5826E3296A2A6A99
:1013FA00030E1F5C1FE21D50EA6A200FE96E010E00
:10140A00EA2280CFEFFF1D50EA6A230FE96E010E30
:10141A00EA2281CFEFFF1D50EA6A260FE96E010E1C
:10142A00EA2282CFEFFF1D2A030E1D5C01E31D6A2B
:10143A001F2A02D01B6A1C6A000ED8802054000E94
:10144A0021541CE2000ED8802F54000E305416E2AC
:10145A002B2A000E2C2220502B5C21502C580EE3F4
:10146A002B6A2C6A030E245C07E2222A030E225CF2
:10147A0001E3226A242A02D0206A216A2F503010FE
:10148A000BE0050E2E5C07E3C18C9E9C9D8CC280EE
:10149A00C2822E6A01D02E2A0501005101E11CD117
:1014AA00DE6ADD6ADECF50F0DDCF51F0040E505C0B
:1014BA00000E515801E310D1DECFE9FFDDCFEAFF7C
:1014CA00010ED890E936EA36E806FBE1010EE92674
:1014DA00050EEA22EE50ED1001E1D3D0DECFE9FF8E
:1014EA00DDCFEAFF010ED890E936EA36E806FBE1DD
:1014FA00110EE926050EEA22EE50ED1026E1D9CFAB
:10150A00E9FFDACFEAFFEE50ED1001E18180D9CF91
:10151A00E9FFDACFEAFF010EEE1801E1ED5001E131
:10152A008182D9CFE9FFDACFEAFF020EEE1801E194
:10153A00ED5001E18184D9CFE9FFDACFEAFF030E4A
:10154A00EE1801E1ED5001E18186DECFE9FFDDCF42
:10155A00EAFF010ED890E936EA36E806FBE1110EF9
:10156A00E926050EEA22EECF50F0EFCF51F0DECF9A
:10157A00E9FFDDCFEAFF010ED890E936EA36E80640
:10158A00FBE1010EE926050EEA22EECF52F0EFCF7B
:10159A0053F05250501802E15350511826E1D9CF56
:1015AA00E9FFDACFEAFFEE50ED1001E18190D9CFE1
:1015BA00E9FFDACFEAFF010EEE1801E1ED5001E191
:1015CA008192D9CFE9FFDACFEAFF020EEE1801E1E4
:1015DA00ED5001E18194D9CFE9FFDACFEAFF030E9A
:1015EA00EE1801E1ED5001E18196DECFE9FFDDCF92
:1015FA00EAFF010ED890E936EA36E806FBE1110E59
:10160A00E926050EEA22EE2A000EEF22DECFE9FFD6
:10161A00DDCFEAFF010ED890E936EA36E806FBE1AB
:10162A00110EE926050EEA22EECF50F0EFCF51F067
:10163A00DECFE9FFDDCFEAFF010ED890E936EA36C0
:10164A00E806FBE1090EE926050EEA22EECF52F082
:10165A00EFCF53F05250501802E15350511810E195
:10166A00DECFE9FFDDCFEAFF010ED890E936EA3690
:10167A00E806FBE1110EE926050EEA22EE6AED6A9A
:10168A0026D0D9CFE9FFDACFEAFFEE50ED1001E11B
:10169A008190D9CFE9FFDACFEAFF010EEE1801E116
:1016AA00ED5001E18192D9CFE9FFDACFEAFF020ECC
:1016BA00EE1801E1ED5001E18194D9CFE9FFDACFCB
:1016CA00EAFF030EEE1801E1ED5001E18196DF2AEF
:1016DA00010E01E3DB2AE6D60201E45102E002012F
:1016EA00E4079EAC4BD09E9CC1AC06D0C19C010EB7
:1016FA00316E326A2D6A21D0C450526E52C053F0F4
:10170A00526AC35000015210506E53C051F02D500E
:10171A00E96EEA6AD890E936EA36000EE926010E41
:10172A00EA2250C0EEFF51C0EDFF31C031F032C0A5
:10173A0032F0D890313632362D2A100E2D5C14E252
:10174A0031502F14506E32503014516E5050511087
:10175A0002E00AD008D02D2A31C031F032C032F06E
:10176A00D89031363236E9D7100E2D5C02E39D9CB3
:10177A0005D02D50040DF328C26EC282F2A442D0C5
:10178A00D59EF294F29A040E506E2850EA6A290FF6
:10179A00E96E010EEA22EF50505C34E1080E285C33
:1017AA000DE2070E2814506E010E505204E0E8466E
:1017BA00FE0B5006FCE1E81C89161CD0100E285CB2
:1017CA000DE2070E2814506E010E505204E0E8464E
:1017DA00FE0B5006FCE1E81C8A160CD0070E2814F2
:1017EA00506E010E505204E0E846FE0B5006FCE132
:1017FA00E81C8B162850EA6A290FE96E010EEA22C4
:10180A00020EEF6E040EE15C02E2E16AE552E16E5D
:10181A00E552E7CFD9FFE552E5CFF4FFE5CFF3FF75
:10182A00E5CFEAFFE5CFE9FFE5CFDAFFE550E5CFFF
:10183A00E0FFE5CFD8FF1000D9CFE6FFE1CFD9FF0F
:10184A00020EE126896A92682F6A306A8A6A936868
:10185A008B6A94688C968C9495969594928E0601D0
:10186A00010EFD6F0E01B969BA69236A226A246AF8
:10187A001E6A1D6A1F6A1B6A1C6A206A216A296A13
:10188A002A6A2B6A2C6A2D6A76827680769C769AE8
:10189A0076887696FA0E776EDF6ADFCF47F0100EFB
:1018AA00E76E4718E8AE02D0E73402D0E750475C4B
:1018BA0010E2DFCFE9FFEA6AE9BEEA68D890E936C2
:1018CA00EA36000EE926010EEA22EE6AED6ADF2AFE
:1018DA00E4D70601F76B0601F86B0601F56B060102
:1018EA00F66B0601F96B0601FA6B0601FB6B060142
:1018FA00FC6B266A276A286ADF6ADFCF47F0180E70
:10190A00E76E4718E8AE02D0E73402D0E750475CEA
:10191A001BE2DFCFE9FFEA6AE9BEEA68D890E93656
:10192A00EA36410EE926010EEA22EE6AED6ADFCFB7
:10193A00E9FFEA6AE9BEEA68290EE926010EEA2207
:10194A00010EEF6EDF2AD9D7D586D59AD59CF294A7
:10195A00F29AF1940F01498FBE0EC16ED08E769421
:10196A00A386A59613EC2CF0B7EC3BF0F28EF28C22
:10197A00768437D8020EE15C02E2E16AE552E16E52
:10198A00E552E7CFD9FF1200D9CFE6FFE1CFD9FF61
:10199A00A4A8FED7FE0EDB50A96EE552E7CFD9FF09
:1019AA001200D9CFE6FFE1CFD9FFFD0EDBCFF6FF5C
:1019BA00FE0EDBCFF7FF0800F5500FE0FD0EDBCF80
:1019CA00F6FFDB2AFE0EDBCFF7FF01E3DB2A080076
:1019DA00F550E66ED9DFE552E8D7E552E7CFD9FFF1
:1019EA001200550EA76EAA0EA76E0E01FF910E01E8
:1019FA00110EF66F0E01050EC86F550EA76EAA0ED0
:101A0A00A76E0E01FF81190EE66EE66A1C0EE66EDF
:101A1A0002EC41F0E552E552E552C40EE66E0BECDB
:101A2A0042F0E552320EA96E9A0EE66E7D0EE66E11
:101A3A00B8DFE552E5521200D9CFE6FFE1CFD9FF70
:101A4A00050EE126020EDB6A030EDB6A040EDB6A70
:101A5A00B2EC1EF01F50000809E2CDEC14F01E2A69
:101A6A00030E1E5C01E11E6A1F06F4D7245000080B
:101A7A0009E2FFEC14F0232A030E235C01E1236A36
:101A8A002406F4D7200E0601E76EA819E8AE02D0A4
:101A9A00E73402D0E750A85D03E36550020B01E08A
:101AAA00DDD1400EE66E400EE66E020EE66EF5ECF5
:101ABA0039F0E552E552E552E76E030EE7CFDBFF58
:101ACA00030EDB50000801E343D1040EDB6A030E68
:101ADA00DB50F36E040EDBCFF4FFF350F45C01E34A
:101AEA0037D1040EDB50EA6A400FE96E020EEA2291
:101AFA00EFCFDFFF05015D5145E10D0E476EDF5067
:101B0A00475C05E00A0E486EDF50485C3BE1050180
:101B1A00010E5D6F0601F751EA6A000FE96E030EC6
:101B2A00EA220D0EEF6E0601F72B010EDB6A0601A3
:101B3A00F751F36E010EDBCFF4FFF350F45C1CE2B5
:101B4A00010EDBCFE9FFEA6AE9BEEA68000EE92680
:101B5A00030EEA22EF50E66E010EDBCFE9FFEA6AD6
:101B6A00E9BEEA68190EE926050EEA22E552E750AF
:101B7A00EF6E010EDB2ADBD708DA0601F76B0601E6
:101B8A00F86BD4D01B0EDF5C0EE1050159510BE155
:101B9A000501010E596F05011B0E5A6F05015B6B9A
:101BAA0005015C6BC3D0050159050EE15B0EDF5CD4
:101BBA000BE11B0E05015A5D07E105015B5104E1CA
:101BCA0005015B0E5B6FB2D0050159056FE1410E4D
:101BDA00DF5C6CE11B0E05015A5D68E15B0E0501D5
:101BEA005B5D64E105015A6B05015B6B05015C6B8A
:101BFA000501596B010EDB6A010EDBCFE9FFEA6AC8
:101C0A00E9BEEA68000EE926030EEA22EF500D0843
:101C1A001CE0010EDBCFE9FFEA6AE9BEEA68190EA9
:101C2A00E926050EEA22EF50E66E010EDBCFE9FF48
:101C3A00EA6AE9BEEA68000EE926030EEA22E552DC
:101C4A00E750EF6E010EDB2AD7D7010EDBCFF7F68E
:101C5A000601F751EA6A000FE96E030EEA22EF6AFB
:101C6A008E0E476E7D0E486E496A47C0E6FF48C031
:101C7A00E6FF49C0E6FF2CEC40F0E552E552E5529A
:101C8A00000EE66E030EE66E8B0E476E7D0E486EF4
:101C9A00496A47C0E6FF48C0E6FF49C0E6FF2CECA8
:101CAA0040F04A6E050EE15E4A5040D0080EDF5CF5
:101CBA001FE10601F75100081BE20601F7070601BA
:101CCA00F751EA6A000FE96E030EEA22EF6A880EFC
:101CDA00476E7D0E486E496A47C0E6FF48C0E6FF78
:101CEA0049C0E6FF2CEC40F0E552E552E5521ED021
:101CFA000D0EDF5C1BE00A0EDF5C18E0200EDF5CD5
:101D0A0015E305015A6B05015B6B05015C6B050167
:101D1A00596B0601F751EA6A000FE96E030EEA22CF
:101D2A00DFCFEFFF05015D6B0601F72B0601F751C7
:101D3A00476E486A000E471802E1010E481805E18D
:101D4A0025860601F76B0601F86B040EDB2ABFD65F
:101D5A00255001E182D025A010D0820E476E7D0E5B
:101D6A00486E496A47C0E6FF48C0E6FF49C0E6FF39
:101D7A002CEC40F0E552E552E55225A210D0630E54
:101D8A00476E7D0E486E496A47C0E6FF48C0E6FFC7
:101D9A0049C0E6FF2CEC40F0E552E552E55225A495
:101DAA0010D0470E476E7D0E486E496A47C0E6FF5F
:101DBA0048C0E6FF49C0E6FF2CEC40F0E552E55288
:101DCA00E55225A610D02B0E476E7D0E486E496A45
:101DDA0047C0E6FF48C0E6FF49C0E6FF2CEC40F0EA
:101DEA00E552E552E55225A810D00C0E476E7D0E3D
:101DFA00486E496A47C0E6FF48C0E6FF49C0E6FFA9
:101E0A002CEC40F0E552E552E55225AA00D025AC6B
:101E1A0010D0EB0E476E7C0E486E496A47C0E6FF4B
:101E2A0048C0E6FF49C0E6FF2CEC40F0E552E55217
:101E3A00E552000E251410E0D20E476E7C0E486E55
:101E4A00496A47C0E6FF48C0E6FF49C0E6FF2CECF6
:101E5A0040F0E552E552E552256A45D8050EE15CA7
:101E6A0002E2E16AE552E16EE552E7CFD9FF1200DC
:101E7A00D9CFE6FFE1CFD9FFE652F5C6DFFFDF2A69
:101E8A00400E476EDF50475C01E1DF6A0601F651FA
:101E9A00DF5C01E128D80601F551EA6A000FE96E14
:101EAA00020EEA22FE0EDBCFEFFF0601F52B400EF3
:101EBA000601F55D02E10601F56B0601F651060120
:101ECA00F55D01E12584FE0EDBCF47F0486A47BE87
:101EDA00486847C0F3FF48C0F4FF00D0E552E55216
:101EEA00E7CFD9FF1200D9CFE6FFE1CFD9FFE652FB
:101EFA000601F5510601F65D43E00601905105E041
:101F0A00FEEC3AF0C9EC20F0F8D70601F6510601CA
:101F1A00D880F5551AE20601F6510601F55DDF6E25
:101F2A00DFCFE6FF0601F651486A000F476E020E40
:101F3A00482247C0E6FF48C0E6FF5CEC3AF0E552AB
:101F4A00E552E552F5C6F6F619D0400E0601D880DC
:101F5A00F655DF6EDFCFE6FF0601F651486A000F3D
:101F6A00476E020E482247C0E6FF48C0E6FF5CEC17
:101F7A003AF0E552E552E5520601F66BFEEC3AF00C
:101F8A00E552E552E7CFD9FF1200D9CFE6FFE1CFFC
:101F9A00D9FF040EE126DE6ADD6A020EDB6A030E51
:101FAA00DB6A0601F851EA6A000FE96E030EEA22BB
:101FBA00EF50E66EE66AA3EC41F0E552E552020EF6
:101FCA00F3CFDBFF0601F82B0601F851476E486A8A
:101FDA00000E471802E1010E481802E10601F86BEB
:101FEA00020EDB50DE6EDD6A0601F851EA6A000F66
:101FFA00E96E030EEA22EF502C083BE00601F85185
:10200A00EA6A000FE96E030EEA22EF500D0831E08A
:10201A000601F851EA6A000FE96E030EEA22EF5050
:10202A00E66EE66AA3EC41F0E552E552030EF3CF01
:10203A00DBFF0601F82B0601F851476E486A000ECD
:10204A00471802E1010E481802E10601F86B020E78
:10205A00DBCF49F049C04AF0496A030EDB50000160
:10206A004924476E000E4A20486E47C0DEFF48C02A
:10207A00DDFF000EDBCF3BF0010EDBCF3CF0430E61
:10208A003B1802E1410E3C1801E1C2D14D0E3B184A
:10209A0002E1510E3C1801E1B8D14D0E3B1802E1A4
:1020AA00520E3C1801E1AED1320E3B1802E1530E3A
:1020BA003C1801E1A4D1450E3B1802E1530E3C182D
:1020CA0001E19AD1430E3B1802E1510E3C1801E19D
:1020DA0090D14B0E3B1802E1430E3C1801E186D128
:1020EA004C0E3B1802E1420E3C1801E17CD1440E31
:1020FA003B1802E14E0E3C1801E172D1490E3B1821
:10210A0002E14E0E3C1801E168D1420E3B1802E191
:10211A00510E3C1801E15ED14C0E3B1802E1510E02
:10212A003C1801E154D14C0E3B1802E1530E3C1805
:10213A0001E14AD14E0E3B1802E1510E3C1801E171
:10214A0040D14E0E3B1802E1530E3C1801E136D144
:10215A00430E3B1802E1530E3C1801E12CD14D0EFF
:10216A003B1802E1450E3C1801E122D1500E3B1802
:10217A0002E1510E3C1801E118D1500E3B1802E160
:10218A00540E3C1801E10ED1500E3B1802E1530ED9
:10219A003C1801E104D14D0E3B1802E1530E3C18E4
:1021AA0001E1FAD0470E3B1802E1500E3C1801E15A
:1021BA00F0D0430E3B1802E1500E3C1801E1E6D084
:1021CA00490E3B1802E1430E3C1801E1DCD0490EEE
:1021DA003B1802E1520E3C1801E1D2D0490E3B18DD
:1021EA0002E1530E3C1801E1C8D0530E3B1802E13C
:1021FA00430E3C1801E1BED0530E3B1802E1520EC9
:10220A003C1801E1B4D0530E3B1802E1530E3C18BE
:10221A0001E1AAD0530E3B1802E1420E3C1801E13B
:10222A00A0D0430E3B1802E1420E3C1801E196D0C1
:10223A00430E3B1802E1520E3C1801E18CD04F0EBE
:10224A003B1802E1420E3C1801E182D0570E3B18BE
:10225A0002E14D0E3C1801E179D0520E3B1802E121
:10226A004D0E3C1870E0440E3B1802E1500E3C182B
:10227A0067E04F0E3B1802E1500E3C185EE0490E33
:10228A003B1802E1500E3C1855E0580E3B1802E18B
:10229A00540E3C184CE0540E3B1801E13C5045E00A
:1022AA00410E3B1801E13C503EE0560E3B1801E15D
:1022BA003C5037E0490E3B1801E13C5030E04F0EEC
:1022CA003B1801E13C5029E0550E3B1802E1430E50
:1022DA003C1821E0580E3B1802E1430E3C1818E066
:1022EA00430E3B1801E13C5011E0520E3B1801E14C
:1022FA003C500AE0580E3B1802E1520E3C1801E02D
:10230A0089D0C0EC18F0C5D0FBD8C3D093D9C1D0BE
:10231A00C3EC18F0BED0F8D8BCD0A8DABAD038DBF3
:10232A00B8D057DBB6D066DBB4D038D9B2D0BDEC62
:10233A0018F0AFD004EC17F0ACD0CDEC17F0A9D060
:10234A0011EC16F0A6D0CCEC15F0A3D0E0DBA1D0AE
:10235A007FEC19F09ED0C6EC18F09BD07CEC19F0FB
:10236A0098D082EC19F095D085EC19F092D088ECCF
:10237A0019F08FD08BEC19F08CD08EEC19F089D033
:10238A0091EC19F086D094EC19F083D097EC19F0FF
:10239A0080D02BEC1AF07DD014EC2EF07AD003EC1E
:1023AA0030F077D0C5EC2FF074D0A8EC2FF071D0B4
:1023BA00CFEC30F06ED0C2EC2CF06BD083EC31F065
:1023CA0068D0B4EC31F065D0D0EC31F062D0E3ECF7
:1023DA0031F05FD000EC32F05CD061EC31F059D0D2
:1023EA0074EC31F056D069EC1AF053D071EC1AF053
:1023FA0050D01FEC32F04DD03DEC32F04AD063ECB5
:10240A003CF047D0E2EC32F044D0E3EC32F041D079
:10241A00F5D93FD0030EDB501AE1020EDBCFE6FFFF
:10242A00E66A020EDBCFE6FFE66AAF0E476E7C0E67
:10243A00486E496A47C0E6FF48C0E6FF49C0E6FF62
:10244A002CEC40F04A6E070EE15E4A5021D0030E92
:10245A00DBCFE6FFE66A020EDBCFE6FFE66A030E93
:10246A00DBCFE6FFE66A020EDBCFE6FFE66A870EFF
:10247A00476E7C0E486E496A47C0E6FF48C0E6FFD1
:10248A0049C0E6FF2CEC40F04A6E0B0EE15E4A5062
:10249A0000D00601F851EA6A000FE96E030EEA223B
:1024AA00EF500D080DE025500BE1520E476E486AB9
:1024BA00DF50471803E1DE52DD50481801E0258E4F
:1024CA00F7C6F8F6040EE15C02E2E16AE552E16E53
:1024DA00E552E7CFD9FF12000601FD5110E0DA0EEE
:1024EA00476E830E486E496A47C0E6FF48C0E6FF5A
:1024FA0049C0E6FF2CEC40F0E552E552E5521200E5
:10250A0021EC0CF0E9DF1200D9CFE6FFE1CFD9FFC9
:10251A00030EE126E66AD9CFE6FFDACFE6FF010E1F
:10252A00E66EB3EC1BF0E552E552E552E552E66A77
:10253A00D950010FE66E000EDA20E66E020EE66E44
:10254A00B3EC1BF0E552E552E552E552255001E0A5
:10255A001BD0DF0418E1D950010FE96EDACFEAFF88
:10256A00EE50ED100BE0010E476E486A010EDB508B
:10257A00471803E1020EDB50481804E1010EDBCFD5
:10258A00FDF601D0258CA8DF030EE15C02E2E16AC8
:10259A00E552E16EE552E7CFD9FF1200D9CFE6FF47
:1025AA00E1CFD9FF030EE126020EDB6AE66A190EB5
:1025BA00E66E000EE66E030EE66EB3EC1BF0E55215
:1025CA00E552E552E552E66AD950020FE66E000E70
:1025DA00DA20E66E010EE66EB3EC1BF0E552E55228
:1025EA00E552E552255001E01BD0020EDB500CE10A
:1025FA0019501A1003E11B6A1C6A05D0768419C0A7
:10260A001BF01AC01CF00BD019501A1003E1206AF3
:10261A00216A05D0768419C020F01AC021F05CDF47
:10262A00030EE15C02E2E16AE552E16EE552E7CFB0
:10263A00D9FF1200D9CFE6FFE1CFD9FF050EE12677
:10264A00E66AD9CFE6FFDACFE6FF010EE66EB3EC13
:10265A001BF0E552E552E552E552E66AD950010F00
:10266A00E66E000EDA20E66E010EE66EB3EC1BF0A3
:10267A00E552E552E552E552E66AD950020FE66E96
:10268A00000EDA20E66E010EE66EB3EC1BF0E552A0
:10269A00E552E552E552E66AD950030FE66E000E9E
:1026AA00DA20E66E010EE66EB3EC1BF0E552E55257
:1026BA00E552E552E66AD950040FE66E000EDA20BA
:1026CA00E66E010EE66EB3EC1BF0E552E552E552FA
:1026DA00E552255001E00FD0DF50926E010EDB501B
:1026EA00936E020EDB50946E030EDB50956E040E51
:1026FA00DB50966EF1DE050EE15C02E2E16AE5521C
:10270A00E16EE552E7CFD9FF1200D9CFE6FFE1CF5C
:10271A00D9FFFE0EDB50100805E2100EF36EFE0E16
:10272A00F3CFDBFFFD0EDB5031E0FE0EDB5048EC51
:10273A0042F0F3502F12F4503012080EF36EFE0ED0
:10274A00DBCFF4FFF350F45C0EE2010EF36EFE0EE3
:10275A00DB5004E0D890F336E806FCE1F350E81CBD
:10276A000F01481712D0FE0EDB500C080EE3FE0EC6
:10277A00DB50F80F476E010E475204E0E846FE0BA5
:10278A004706FCE1E81C0F01491734D0FE0EDB5066
:10279A0048EC42F0F3CF47F0F4CF48F0471E481E0A
:1027AA0047502F1648503016080EF36EFE0EDBCF38
:1027BA00F4FFF350F45C0DE2010EF36EFE0EDB50F3
:1027CA0004E0D890F336E806FCE1F3500F01481311
:1027DA0011D0FE0EDB500C080DE3FE0EDB50F80F95
:1027EA00476E010E475204E0E846FE0B4706FCE13D
:1027FA000F014913E552E7CFD9FF1200D9CFE6FFFF
:10280A00E1CFD9FF020EE126E66AD9CFE6FFDACF99
:10281A00E6FF010EE66EB3EC1BF0E552E552E55217
:10282A00E552E66AD950010FE66E000EDA20E66E2E
:10283A00010EE66EB3EC1BF0E552E552E552E552A5
:10284A00255001E009D0010EDBCFE6FFDFCFE6FF1E
:10285A005CDFE552E55240DE020EE15C02E2E16A2B
:10286A00E552E16EE552E7CFD9FF1200D9CFE6FF74
:10287A00E1CFD9FF020EE126E66AD9CFE6FFDACF29
:10288A00E6FF010EE66EB3EC1BF0E552E552E552A7
:10289A00E552E76E010EE7CFDBFF255001E06ED06F
:1028AA00010EDB5002E1DF50896E010EE66ED9CFD0
:1028BA00E6FFDACFE6FF010EE66EB3EC1BF0E55257
:1028CA00E552E552E552E76E010EE7CFDBFF2550F0
:1028DA0001E054D0010EDB5002E1DF508A6E010E96
:1028EA00E66ED9CFE6FFDACFE6FF010EE66EB3EC6D
:1028FA001BF0E552E552E552E552E76E010EE7CFCD
:10290A00DBFF255001E03AD0010EDB5002E1DF5037
:10291A008B6E010EE66ED9CFE6FFDACFE6FF010E27
:10292A00E66EB3EC1BF0E552E552E552E552E76E6E
:10293A00010EE7CFDBFF255001E020D0010EDB506E
:10294A0002E1DF508C6E010EE66ED9CFE6FFDACFD8
:10295A00E6FF010EE66EB3EC1BF0E552E552E552D6
:10296A00E552E76E010EE7CFDBFF255001E006D006
:10297A00010EDB5002E1DF508D6EAEDD020EE15C2E
:10298A0002E2E16AE552E16EE552E7CFD9FF1200B1
:10299A008450E66EE66A8350E66EE66A8250E66E18
:1029AA00E66A8150E66EE66A8050E66EE66A6A0E6C
:1029BA00476E7C0E486E496A47C0E6FF48C0E6FF8C
:1029CA0049C0E6FF2CEC40F04A6E0D0EE15E4A501B
:1029DA001200E20E476E830E486E496A47C0E6FF50
:1029EA0048C0E6FF49C0E6FF2CEC40F0E552E5524C
:1029FA00E5521200D9CFE6FFE1CFD9FF030EE12657
:102A0A00DF6A010EF36E010EF3CFDBFF020EDB6A03
:102A1A00680E476E7C0E486E496A47C0E6FF48C09A
:102A2A00E6FF49C0E6FF2CEC40F0E552E552E552DC
:102A3A009DBCFED7DF6ADFCF47F0100EE76E47185E
:102A4A00E8AE02D0E73402D0E750475C46E2010E16
:102A5A00DB502F14476E020EDB503014486E47507D
:102A6A0048102AE0DFCFE9FFEA6AE9BEEA68D890AF
:102A7A00E936EA36000EE926010EEA22EECFE6FF33
:102A8A00EFCFE6FFDFCF47F0486A47BE486847C046
:102A9A00E6FF48C0E6FF5D0E496E7C0E4A6E4B6A41
:102AAA0049C0E6FF4AC0E6FF4BC0E6FF2CEC40F007
:102ABA004C6E070EE15E4C50010EDBCF47F0020E62
:102ACA00DBCF48F0D89047364836010E47C0DBFFC7
:102ADA00020E48C0DBFFDF2AAED7DF0E476E830E39
:102AEA00486E496A47C0E6FF48C0E6FF49C0E6FFAC
:102AFA002CEC40F0E552E552E552030EE15C02E2AD
:102B0A00E16AE552E16EE552E7CFD9FF1200D9CF6B
:102B1A00E6FFE1CFD9FF030EE126E66AD9CFE6FF49
:102B2A00DACFE6FF030EE66EB3EC1BF0E552E55290
:102B3A00E552E552E66AD950020FE66E000EDA2037
:102B4A00E66E010EE66EB3EC1BF0E552E552E55275
:102B5A00E552255001E011D0DECF47F0DDCF48F035
:102B6A00000E475C100E485807E2DECFE9FFDDCFC2
:102B7A00EAFF020EDBCFEFFFAFDC030EE15C02E2FD
:102B8A00E16AE552E16EE552E7CFD9FF1200D9CFEB
:102B9A00E6FFE1CFD9FF030EE126E66AD9CFE6FFC9
:102BAA00DACFE6FF030EE66EB3EC1BF0E552E55210
:102BBA00E552E552255001E025D0DECF47F0DDCFC2
:102BCA0048F0000E475C100E485807E2DECFE9FFD6
:102BDA00DDCFEAFF020EEFCFDBFF020EDBCFE6FF0F
:102BEA00E66A530E476E7C0E486E496A47C0E6FF96
:102BFA0048C0E6FF49C0E6FF2CEC40F04A6E050EDD
:102C0A00E15E4A50030EE15C02E2E16AE552E16EDE
:102C1A00E552E7CFD9FF1200D9CFE6FFE1CFD9FFBE
:102C2A00030EE126E66AD9CFE6FFDACFE6FF050E04
:102C3A00E66EB3EC1BF0E552E552E552E552E66A60
:102C4A00D950010FE66E000EDA20E66E010EE66E2E
:102C5A00B3EC1BF0E552E552E552E552E66AD9506B
:102C6A00020FE66E000EDA20E66E010EE66EB3EC97
:102C7A001BF0E552E552E552E552255001E0B5D088
:102C8A00020EDB50010802E2258CAFD0010EDB50A8
:102C9A00070802E2258CA9D0410E476EDF50475C37
:102CAA001CE1020EDB500DE1010EF36E010EDB504A
:102CBA0004E0D890F336E806FCE1F350E81C9216DB
:102CCA000BD0010EF36E010EDB5004E0D890F33600
:102CDA00E806FCE1F350921286D0420E476EDF50AE
:102CEA00475C1CE1020EDB500DE1010EF36E010E92
:102CFA00DB5004E0D890F336E806FCE1F350E81C18
:102D0A0093160BD0010EF36E010EDB5004E0D8903F
:102D1A00F336E806FCE1F350931265D0430E476E92
:102D2A00DF50475C1CE1020EDB500DE1010EF36E31
:102D3A00010EDB5004E0D890F336E806FCE1F350CC
:102D4A00E81C94160BD0010EF36E010EDB5004E062
:102D5A00D890F336E806FCE1F350941244D0440EBE
:102D6A00476EDF50475C1CE1020EDB500DE1010E9D
:102D7A00F36E010EDB5004E0D890F336E806FCE16E
:102D8A00F350E81C95160BD0010EF36E010EDB50C2
:102D9A0004E0D890F336E806FCE1F350951223D00C
:102DAA00450E476EDF50475C1CE1020EDB500DE119
:102DBA00010EF36E010EDB5004E0D890F336E806FC
:102DCA00FCE1F350E81C96160BD0010EF36E010ECF
:102DDA00DB5004E0D890F336E806FCE1F350961293
:102DEA0002D0258C02D071EC12F0030EE15C02E2F3
:102DFA00E16AE552E16EE552E7CFD9FF1200D9CF79
:102E0A00E6FFE1CFD9FF030EE126020EDB6AE66A8E
:102E1A00D9CFE6FFDACFE6FF050EE66EB3EC1BF07C
:102E2A00E552E552E552E552E66AD950010FE66EDF
:102E3A00000EDA20E66E010EE66EB3EC1BF0E552E8
:102E4A00E552E552E552255001E098D0010EDB50DB
:102E5A00070802E2258C92D0410E476EDF50475C8C
:102E6A0012E1010EDB28476E010E475204E0E846E4
:102E7A00FE0B4706FCE1E8407F0B8014E76E020E6A
:102E8A00E7CFDBFF5ED0420E476EDF50475C12E1B0
:102E9A00010EDB28476E010E475204E0E846FE0B9E
:102EAA004706FCE1E8407F0B8114E76E020EE7CF8C
:102EBA00DBFF47D0430E476EDF50475C12E1010E3D
:102ECA00DB28476E010E475204E0E846FE0B470630
:102EDA00FCE1E8407F0B8214E76E020EE7CFDBFFCE
:102EEA0030D0440E476EDF50475C12E1010EDB28FA
:102EFA00476E010E475204E0E846FE0B4706FCE126
:102F0A00E8407F0B8314E76E020EE7CFDBFF19D090
:102F1A00450E476EDF50475C12E1010EDB28476E13
:102F2A00010E475204E0E846FE0B4706FCE1E84082
:102F3A007F0B8414E76E020EE7CFDBFF02D0258CED
:102F4A001DD0020EDB5005E0010EF36E020EF3CF28
:102F5A00DBFF020EDBCFE6FFE66A4A0E476E7C0E07
:102F6A00486E496A47C0E6FF48C0E6FF49C0E6FF27
:102F7A002CEC40F04A6E050EE15E4A50030EE15C0D
:102F8A0002E2E16AE552E16EE552E7CFD9FF1200AB
:102F9A00D9CFE6FFE1CFD9FF030EE126E66AD9CF02
:102FAA00E6FFDACFE6FF050EE66ED8DBE552E5521C
:102FBA00E552E552E66AD950010FE66E000EDA20B4
:102FCA00E66E010EE66ECADBE552E552E552E552BF
:102FDA00E66AD950020FE66E000EDA20E66E010E9E
:102FEA00E66EBCDBE552E552E552E552255001E0BA
:102FFA00B5D0020EDB50010802E2258CAFD0010EDB
:10300A00DB50070802E2258CA9D0410E476EDF503B
:10301A00475C1CE1020EDB500DE1010EF36E010E5E
:10302A00DB5004E0D890F336E806FCE1F350E81CE4
:10303A0089160BD0010EF36E010EDB5004E0D89016
:10304A00F336E806FCE1F350891286D0420E476E49
:10305A00DF50475C1CE1020EDB500DE1010EF36EFE
:10306A00010EDB5004E0D890F336E806FCE1F35099
:10307A00E81C8A160BD0010EF36E010EDB5004E039
:10308A00D890F336E806FCE1F3508A1265D0430E75
:10309A00476EDF50475C1CE1020EDB500DE1010E6A
:1030AA00F36E010EDB5004E0D890F336E806FCE13B
:1030BA00F350E81C8B160BD0010EF36E010EDB5099
:1030CA0004E0D890F336E806FCE1F3508B1244D0C2
:1030DA00440E476EDF50475C1CE1020EDB500DE1E7
:1030EA00010EF36E010EDB5004E0D890F336E806C9
:1030FA00FCE1F350E81C8C160BD0010EF36E010EA6
:10310A00DB5004E0D890F336E806FCE1F3508C1269
:10311A0023D0450E476EDF50475C1CE1020EDB50A0
:10312A000DE1010EF36E010EDB5004E0D890F33688
:10313A00E806FCE1F350E81C8D160BD0010EF36E85
:10314A00010EDB5004E0D890F336E806FCE1F350B8
:10315A008D1202D0258C02D071EC12F0030EE15CC4
:10316A0002E2E16AE552E16EE552E7CFD9FF1200C9
:10317A0071EC12F0120071EC12F0120071EC12F004
:10318A001200D9CFE6FFE1CFD9FF040EE126E66AA5
:10319A00D9CFE6FFDACFE6FF050EE66EDFDAE552B3
:1031AA00E552E552E552E66AD950010FE66E000E85
:1031BA00DA20E66E010EE66ED1DAE552E552E55204
:1031CA00E552E66AD950020FE66E000EDA20E66E84
:1031DA00030EE66EC3DAE552E552E552E552255092
:1031EA0001E07BD0D950020FE96EDACFEAFF720E06
:1031FA00D880EE542E0EED5402E2258C6ED0D950B2
:10320A00020FE96EDACFEAFFEE50ED101FE04A68CE
:10321A004B684C6A2D0EE76E020EDBCF4DF0030EA3
:10322A00DBCF4EF0E7504D26000E4E224F6A4D502E
:10323A004A5C476E4E504B58486E4F504C58496E38
:10324A00020E47C0DBFF030E48C0DBFF010EDB5056
:10325A00070802E2258C41D0410E476EDF50475CD9
:10326A0002E1DF6A12D0420E476EDF50475C03E18B
:10327A00080EDF6E0AD0430E476EDF50475C03E14B
:10328A00100EDF6E02D0258C28D0010EDB50DF2411
:10329A00E96EEA6AD890E936EA36410EE926010E65
:1032AA00EA22020EDBCFEEFF030EDBCFEDFF010EAB
:1032BA00DB50DF24EA6A290FE96E010EEA22EF04E5
:1032CA000AE1010EDB50DF24EA6A290FE96E010EDA
:1032DA00EA22020EEF6E71EC12F0040EE15C02E2D9
:1032EA00E16AE552E16EE552E7CFD9FF120071ECCF
:1032FA0012F0120071EC12F0120071EC12F01200CE
:10330A0071EC12F0120071EC12F0120071EC12F072
:10331A00120071EC12F0120071EC12F0120071EC52
:10332A0012F01200D9CFE6FFE1CFD9FF070EE1264E
:10333A00E66AD9CFE6FFDACFE6FF030EE66E0EDACB
:10334A00E552E552E552E552E66AD950020FE66EB9
:10335A00000EDA20E66E030EE66E00DAE552E5525A
:10336A00E552E552255001E067D0DECF01F5DDCF09
:10337A0002F5020EDBCF09F5030EDBCF0AF5040EC8
:10338A00DB6A030EF36E040EDBCFF4FFF350F45C3A
:10339A0051E2010EE66ED9CFE6FFDACFE6FF030E61
:1033AA00E66EDCD9E552E552E552E552E76E050EC6
:1033BA00E7CFDBFF010EE66ED950020FE66E000E74
:1033CA00DA20E66E030EE66EC9D9E552E552E552F9
:1033DA00E552E76E060EE7CFDBFF255001E02CD061
:1033EA00050EDB5003E1060EDB5001E023D0040E8C
:1033FA00DB28E96EEA6AD890E936EA36010EE92650
:10340A00050EEA22DECFEEFFDDCFEDFF040EDB284C
:10341A00E96EEA6AD890E936EA36090EE926050E17
:10342A00EA22020EDBCFEEFF030EDBCFEDFF040E26
:10343A00DB2AA7D771EC12F0070EE15C02E2E16A1F
:10344A00E552E16EE552E7CFD9FF1200D9CFE6FF88
:10345A00E1CFD9FFE652E66AD9CFE6FFDACFE6FF37
:10346A00010EE66E7BD9E552E552E552E55225504A
:10347A0001E00DD0DF5007E0F00E9314936E0501C2
:10348A00010E006F02D00501006B71EC12F0E552DB
:10349A00E552E7CFD9FF1200D9CFE6FFE1CFD9FF36
:1034AA00E652DF6AFF0EDF5C0AE2E868E85005E0F0
:1034BA00E80600D000D000D0F9D7DF2AF3D7E552CA
:1034CA00E552E7CFD9FF1200F29EF29C6592656A37
:1034DA00E3DF0FEF00F01200D9CFE6FFE1CFD9FF0B
:1034EA00100EE126E66AD950010FE66E000EDA20C8
:1034FA00E66EE66A33D9E552E552E552E552E66AE6
:10350A00D9CFE6FFDACFE6FF010EE66E27D9E552FC
:10351A00E552E552E552E66AD950040FE66E000E0E
:10352A00DA20E66E020EE66E19D9E552E552E55248
:10353A00E552E66AD950020FE66E000EDA20E66E10
:10354A00030EE66E0BD9E552E552E552E552E66AFC
:10355A00D9500A0FE66E000EDA20E66E060EE66E07
:10356A00FDD8E552E552E552E552E66AD950060F12
:10357A00E66E000EDA20E66E070EE66EEFD8E5522A
:10358A00E552E552E552E66AD9500E0FE66E000E94
:10359A00DA20E66E040EE66EE1D8E552E552E5520F
:1035AA00E552E66AD9500F0FE66E000EDA20E66E93
:1035BA00050EE66ED3D8E552E552E552E552010E04
:1035CA00DBCF47F0486A47BE486847C0E6FF48C0B5
:1035DA00E6FF3E0E496E7C0E4A6E4B6A49C0E6FF14
:1035EA004AC0E6FF4BC0E6FF2CEC40F04C6E050EDD
:1035FA00E15E4C50DFCFE6FFE66A320E476E7C0E84
:10360A00486E496A47C0E6FF48C0E6FF49C0E6FF80
:10361A002CEC40F04A6E050EE15E4A50040EDBCFF8
:10362A00E6FF050EDBCFE6FF260E476E7C0E486EE0
:10363A00496A47C0E6FF48C0E6FF49C0E6FF2CECEE
:10364A0040F04A6E050EE15E4A50020EDBCFE6FFFD
:10365A00030EDBCFE6FF1A0E476E7C0E486E496AF0
:10366A0047C0E6FF48C0E6FF49C0E6FF2CEC40F041
:10367A004A6E050EE15E4A50D9500A0FE96EDACF5A
:10368A00EAFFEECFE6FFEECFE6FFEECFE6FFEFCFA3
:10369A00E6FF0D0E476E7C0E486E496A47C0E6FF8C
:1036AA0048C0E6FF49C0E6FF2CEC40F04A6E070E20
:1036BA00E15E4A50D950060FE96EDACFEAFFEECF43
:1036CA00E6FFEECFE6FFEECFE6FFEFCFE6FF000E16
:1036DA00476E7C0E486E496A47C0E6FF48C0E6FF5F
:1036EA0049C0E6FF2CEC40F04A6E070EE15E4A50F4
:1036FA000E0EDBCFE6FFE66AF40E476E7B0E486ECF
:10370A00496A47C0E6FF48C0E6FF49C0E6FF2CEC1D
:10371A0040F04A6E050EE15E4A500F0EDBCFE6FF1F
:10372A00E66AE80E476E7B0E486E496A47C0E6FFB6
:10373A0048C0E6FF49C0E6FF2CEC40F04A6E050E91
:10374A00E15E4A5071EC12F0100EE15C02E2E16AAD
:10375A00E552E16EE552E7CFD9FF1200D9CFE6FF75
:10376A00E1CFD9FF090EE126080EDB6A0D0E476E7E
:10377A000601F851EA6A000FE96E030EEA22EF50D9
:10378A00475C06E1FB0EDB5001E12588030E37D2C8
:10379A000601F851EA6A000FE96E030EEA22EF50B9
:1037AA002C0821E0FB0EDB501CE10601F851EA6A05
:1037BA00000FE96E030EEA22EF50E66EE66AC10ECA
:1037CA00476E7B0E486E496A47C0E6FF48C0E6FF6F
:1037DA0049C0E6FF2CEC40F04A6E050EE15E4A5005
:1037EA00258A020E0CD20601F82B0601F851476E03
:1037FA00486A000E471802E1010E481802E1060164
:10380A00F86B0D0E476E0601F851EA6A000FE96E71
:10381A00030EEA22EF50475C06E1FB0EDB5001E1A2
:10382A002588030EECD12D0E476E0601F851EA6A7F
:10383A00000FE96E030EEA22EF50475C32E1040EF4
:10384A00486EFE0EDB50485C2CE0050E496EFE0EFB
:10385A00DB50495C26E0FE0EDB040CE0030E476EEB
:10386A00FE0EDB50475C06E0070E486EFE0EDB508C
:10387A00485C04E1258C010EC2D113D0010EF36E0F
:10388A00080EF3CFDBFF0601F82B0601F851476E4D
:10389A00486A000E471802E1010E481802E10601C3
:1038AA00F86B040E476EFE0EDB50475C11E0050E06
:1038BA00486EFE0EDB50485C0BE00A0EE66ED9CF6E
:1038CA00E6FFDACFE6FFA7D9E552E552E55245D041
:1038DA000601F851EA6A000FE96E030EEA22EFCFF9
:1038EA0047F0000E47C0DBFF010EDB6A020EDB6AFF
:1038FA00030EDB6A050E476EFE0EDB50475C1FE1C6
:10390A00000EDBCFE6FF010EDBCFE6FFA3EC41F0B2
:10391A00E552E552F3CF47F0F4CF48F0496A4A6AD4
:10392A0048AE02D049684A6847C0DFFF010E48C066
:10393A00DBFF020E49C0DBFF030E4AC0DBFF0601B4
:10394A00F82B0601F851476E486A000E471802E143
:10395A00010E481802E10601F86B080EDB506EE012
:10396A00FE0EDB500EE1D9CFE9FFDACFEAFFD880AD
:10397A00800EEE54000EEE54000EEE54000EEE547D
:10398A0028E3020E476EFE0EDB50475C0EE1D9CFEC
:10399A00E9FFDACFEAFFD880000EEE54800EEE542B
:1039AA00000EEE54000EEE5414E3060E486EFE0EA0
:1039BA00DB50485C11E1D9CFE9FFDACFEAFFD880C2
:1039CA00000EEE54000EEE54000EEE54800EEE542D
:1039DA0003E2258C010E13D1D9CFE9FFDACFEAFF32
:1039EA00040EEECFDBFF050EEECFDBFF060EEECFA9
:1039FA00DBFF070EEECFDBFF080EDB501EE0040EE6
:103A0A00DBCF39F0050EDBCF3AF0060EDBCF3BF009
:103A1A00070EDBCF3CF03E683F68406841683EECE9
:103A2A0041F0040E35C0DBFF050E36C0DBFF060E83
:103A3A0037C0DBFF070E38C0DBFF77D0FE0EDB5046
:103A4A000EE1D9CFE9FFDACFEAFFD8807F0EEE5434
:103A5A00000EEE54000EEE54000EEE544DE3FE0E30
:103A6A00DB040EE1D9CFE9FFDACFEAFFD880FF0EF7
:103A7A00EE54000EEE54000EEE54000EEE543CE3EB
:103A8A00020E476EFE0EDB50475C0EE1D9CFE9FF0E
:103A9A00DACFEAFFD880FF0EEE547F0EEE54000E06
:103AAA00EE54000EEE5428E3030E486EFE0EDB5071
:103ABA00485C0EE1D9CFE9FFDACFEAFFD880FF0EE2
:103ACA00EE54FF0EEE54000EEE54000EEE5414E3C4
:103ADA00060E496EFE0EDB50495C11E1D9CFE9FFB3
:103AEA00DACFEAFFD880FF0EEE54FF0EEE54FF0E37
:103AFA00EE547F0EEE5403E2258C010E80D0070EA1
:103B0A00476EFE0EDB50475C10E0D9CFE9FFDACFF3
:103B1A00EAFF040EEECFDBFF050EEECFDBFF060E4B
:103B2A00EECFDBFF070EEECFDBFFFE0EDB50070A00
:103B3A0050E0010A3BE0050A2CE0010A1DE0030AF5
:103B4A0011E0050A0FE0010A0DE0050A01E053D071
:103B5A00FC0EDBCFE9FFFD0EDBCFEAFF040EDBCF65
:103B6A00EFFF4BD0FC0EDBCFE9FFFD0EDBCFEAFF08
:103B7A00040EDBCFEFFF41D0FC0EDBCFE9FFFD0ED9
:103B8A00DBCFEAFF040EDBCFEEFF050EDBCFEDFF46
:103B9A0034D0FC0EDBCFE9FFFD0EDBCFEAFF040ECB
:103BAA00DBCFEEFF050EDBCFEDFF27D0FC0EDBCF20
:103BBA00E9FFFD0EDBCFEAFF040EDBCFEEFF050EB9
:103BCA00DBCFEEFF060EDBCFEEFF070EDBCFEEFFFD
:103BDA0014D0FC0EDBCFE9FFFD0EDBCFEAFFDFCF0F
:103BEA00EEFF010EDBCFEEFF020EDBCFEEFF030E80
:103BFA00DBCFEEFF02D0040E02D0000E00D0476EDB
:103C0A00090EE15C02E2E16AE552E16E4750E552D3
:103C1A00E7CFD9FF1200D9CFE6FFE1CFD9FF020ED5
:103C2A00E126FD0EDBCFE9FFFE0EDBCFEAFFEE6AEF
:103C3A00EE6AEE6AEE6A010EDB6AFC0EDB50F36E88
:103C4A00010EDBCFF4FFF350F45C64E20601F85195
:103C5A00EA6A000FE96E030EEA22EFCFDFFF300EA9
:103C6A00DF5C53E3DF50390850E3FD0EDBCFE9FF99
:103C7A00FE0EDBCFEAFFEECF47F0EECF48F0EECFF5
:103C8A0049F0EFCF4AF00A0E3E6E3F6A406A416A37
:103C9A0047C039F048C03AF049C03BF04AC03CF04E
:103CAA003EEC41F035C047F036C048F037C049F025
:103CBA0038C04AF0300EDF5C4B6E4C6A4D6A4E6A71
:103CCA004B5047264C5048224D5049224E504A22CA
:103CDA00FD0EDBCFE9FFFE0EDBCFEAFF47C0EEFFAA
:103CEA0048C0EEFF49C0EEFF4AC0EEFF0601F82BBE
:103CFA000601F851476E486A000E471802E1010EA4
:103D0A00481802E10601F86B02D0000E05D0010E38
:103D1A00DB2A93D7010E00D0476E020EE15C02E265
:103D2A00E16AE552E16E4750E552E7CFD9FF12004A
:103D3A001F50E66EE66AB50E476E7B0E486E496AFC
:103D4A0047C0E6FF48C0E6FF49C0E6FF2CEC40F05A
:103D5A004A6E050EE15E4A5012000601A85108E0BB
:103D6A00010E476E6550020B01E0010E475C22E12D
:103D7A0005016107000E625B050163510EE1050151
:103D8A006151621109E18C860501A00E616F0F0E67
:103D9A00626F0501010E636F0CD00501615162115A
:103DAA0008E18C960501A00E616F0F0E626F050186
:103DBA00636B79D00601A8050CE0020E0601A85D26
:103DCA0008E0040E0601A85D04E0100E0601A85DD5
:103DDA0022E105016107000E625B050163510EE1F4
:103DEA0005016151621109E18C860501200E616F9E
:103DFA004E0E626F0501010E636F0CD00501615111
:103E0A00621108E18C960501200E616F4E0E626FF9
:103E1A000501636B48D0200E0601A85D44E1050147
:103E2A006107000E625B050163510EE105016151F4
:103E3A00621109E18C860501100E616F270E626F0F
:103E4A000501010E636F2FD0050163050EE105011F
:103E5A006151621109E18C960501100E616F270EFE
:103E6A00626F0501020E636F1ED0020E0501635DCB
:103E7A000EE105016151621109E18C860501A00E6E
:103E8A00616F860E626F0501030E636F0CD0050128
:103E9A006151621108E18C960501100E616F270EBF
:103EAA00626F0501636B1200D9CFE6FFE1CFD9FF3C
:103EBA00FE0EDBCF47F0190EE76E4718E8AE02D0C8
:103ECA00473403D0E750D880475401E253D0FD0E5F
:103EDA00DB5028E0FE0EDBCFE9FFEA6AE9BEEA68BA
:103EEA00C80EE926050EEA22EF50486E010E485226
:103EFA0004E0E846FE0B4806FCE1476EFE0EDBCF07
:103F0A00E9FFEA6AE9BEEA68D890E936EA36960E27
:103F1A00E926050EEA22EE50EFCFEAFFE96E475096
:103F2A00EF1228D0FE0EDBCFE9FFEA6AE9BEEA68A3
:103F3A00C80EE926050EEA22EF50486E010E4852D5
:103F4A0004E0E846FE0B4806FCE1E81C476EFE0E5C
:103F5A00DBCFE9FFEA6AE9BEEA68D890E936EA36D1
:103F6A00960EE926050EEA22EE50EFCFEAFFE96E39
:103F7A004750EF16E552E7CFD9FF1200D9CFE6FF37
:103F8A00E1CFD9FFFE0EDBCF47F0190EE76E4718D7
:103F9A00E8AE02D0473403D0E750D880475401E254
:103FAA0053D0FD0EDB5029E1FE0EDBCFE9FFEA6AB2
:103FBA00E9BEEA68C80EE926050EEA22EF50486E05
:103FCA00010E485204E0E846FE0B4806FCE1E81CF4
:103FDA00476EFE0EDBCFE9FFEA6AE9BEEA68D890CF
:103FEA00E936EA36640EE926050EEA22EE50EFCFEC
:103FFA00EAFFE96E4750EF1627D0FE0EDBCFE9FF46
:10400A00EA6AE9BEEA68C80EE926050EEA22EF5016
:10401A00486E010E485204E0E846FE0B4806FCE1F1
:10402A00476EFE0EDBCFE9FFEA6AE9BEEA68D8907E
:10403A00E936EA36640EE926050EEA22EE50EFCF9B
:10404A00EAFFE96E4750EF12E552E7CFD9FF1200B7
:10405A00D9CFE6FFE1CFD9FFE652A098636A626A38
:10406A000F01266B020EE66EE66AE66A270EE66E18
:10407A000F0EE66EDFEC3FF0476E050EE15E47502D
:10408A000F01160E396F0F019F0E376F0F017B0E4E
:10409A00366FDF6ADF50476E486A0C0E475C000EC7
:1040AA00485810E2DF50040DF3CFE9FFF4CFEAFFDE
:1040BA00000EE926040EEA22EE6AEE6AEE6AEE6A5B
:1040CA00DF2AE8D7658C0F01386B6598659C62A674
:1040DA0009D062960601BF6B0601C46B0601C56B67
:1040EA00C66BF5D70601010ED86F0601010ED96F0E
:1040FA000601DA6B0601DB6B0601CC6BDF6A030E85
:10410A00DF5C26E2EA6ADF34FE0BEA36E96EB50EB8
:10411A00E926060EEA22EE6AED6AEA6ADF34FE0B47
:10412A00EA36E96EAF0EE926060EEA22EE6AED6A73
:10413A00DF50EA6AD00FE96E060EEA22EF6ADF5014
:10414A00EA6AD30FE96E060EEA22EF6ADF2AD7D7A8
:10415A000601080EB56F040EB66F0F01160E266F14
:10416A000401300E026F040E036F0401400E016F4A
:10417A000401840E006F0601A96B0601A86BE552C3
:10418A00E552E7CFD9FF1200D9CFE6FFE1CFD9FF39
:10419A00E65282BE07D0656A0F01366B0601A86B2C
:1041AA00A198DCD00601A85113E1656A0F01366BAC
:1041BA000F01160E396F0F019F0E376F0F017B0E1D
:1041CA00366F65B602D06586FCD70601010EA86F68
:1041DA000601A8050CE165BA0AD0626A0F01366BBE
:1041EA000F0136810F0136890601020EA86F62504F
:1041FA00040B08E00F010F013651040B03E062942F
:10420A0034EC27F065A202D0A198A8D06250010B25
:10421A000AE00F010F013651010B05E019DF060113
:10422A00040EA86F62906250100B08E00F010F0194
:10423A003651100B03E01DEC27F0629862AC1CD0DB
:10424A000F0136AD0FD0010EE66EE66A000EE66E7D
:10425A00E66A730EE66EE66A40EC3FF0476E060EBB
:10426A00E15E4750629C0601D65102E00601D6077C
:10427A000601D65101E1F9D96250200B07E00F017E
:10428A000F013651200B02E002EC27F06250020BBC
:10429A0015E00F010F013651020B10E0010EE66E18
:1042AA00E66A000EE66EE66AE6687F0EE66E40ECA7
:1042BA003FF0476E060EE15E4750636A040E060140
:1042CA00E76EA819E8AE02D0E73402D0E750A85D3D
:1042DA0002E2A19843D00F0136A73FD0DF6A040E4D
:1042EA00DF5C3BE262A636D064CFCDF60601CD5143
:1042FA00780BE842E842E8420601CE6F6296060170
:10430A00CDB509D00601CE51EA6AD30FE96E060E81
:10431A00EA22EF7008D00601CE51EA6AD00FE96EA0
:10432A00060EEA22EF700601CE5103E14DEC27F0AA
:10433A0010D0000EE66EE66ACD0EE66E060EE66E4A
:10434A00720EE66EE66A40EC3FF0476E060EE15EDC
:10435A00475001D002D0DF2AC2D7A198E552E552D0
:10436A00E7CFD9FF1200D9CFE6FFE1CFD9FF020E7E
:10437A00E126FD0EDBA407D0E66AFE0EDBCFE6FFE0
:10438A000FDAE552E552FD0EDBA208D0010EE66E09
:10439A00FE0EDBCFE6FF04DAE552E552FE0EDB50F5
:1043AA00486A260F476E0F0E482247C0DEFF48C0F4
:1043BA00DDFFDECFE9FFDDCFEAFFFD0EDBCFEFFF4A
:1043CA00020EE15C02E2E16AE552E16EE552E7CFF4
:1043DA00D9FF1200D9CFE6FFE1CFD9FF020EE126BD
:1043EA00FD0EDB500FE0FE0EEA6ADB34FE0BEA3606
:1043FA00E96EB50EE926060EEA22EECFDEFFEDCF14
:10440A00DDFF0ED0FE0EEA6ADB34FE0BEA36E96EF9
:10441A00AF0EE926060EEA22EECFDEFFEDCFDDFF74
:10442A00D9CFE9FFDACFEAFFEE50ED1003E1F36AE4
:10443A00F46A49D0DECFE9FFDDCFEAFF020EE926B2
:10444A00000EEA22FB0EDBCFEEFFFC0EDBCFEDFF08
:10445A00DECFE9FFDDCFEAFFEE52FA0EDBCFEFFF48
:10446A00400E476EDECFE9FFDDCFEAFF4750EF1679
:10447A00880E476EDECFE9FFDDCFEAFF4750EF1225
:10448A00FD0EDB500CE0FE0EEA6ADB34FE0BEA3668
:10449A00E96EB50EE926060EEA22EF740BD0FE0E7F
:1044AA00EA6ADB34FE0BEA36E96EAF0EE926060E3F
:1044BA00EA22EF74DECF47F0DDCF48F047C0F3FFC2
:1044CA0048C0F4FF00D0020EE15C02E2E16AE55264
:1044DA00E16EE552E7CFD9FF1200D9CFE6FFE1CF6F
:1044EA00D9FF020EE126FE0EDB5020E1ADC6E9FF40
:1044FA00AEC6EAFFEE52400EEF6EADC6E9FFAEC69B
:10450A00EAFF020EE926000EEA22300EEE6E040ED3
:10451A00ED6EADC6E9FFAEC6EAFF8C0EEF6EB5C60C
:10452A00E9FFB6C6EAFF840EEF6E3DD0FD0EDB5002
:10453A00E824496EFE0EDB50040DF3504924040DA5
:10454A00F3CF47F0F4CF48F0000E4726040E482276
:10455A0047C0DEFF48C0DDFF840E476EDECFE9FFAD
:10456A00DDCFEAFF4750EF12FD0EDB50E824496E1B
:10457A00FE0EDB50040DF3504924010F040DF3CF56
:10458A0047F0F4CF48F0000E4726040E482247C0F1
:10459A00DEFF48C0DDFF840E476EDECFE9FFDDCFC8
:1045AA00EAFF4750EF12020EE15C02E2E16AE552CD
:1045BA00E16EE552E7CFD9FF1200D9CFE6FFE1CF8E
:1045CA00D9FF65A84ED0FE0EEA6ADB34FE0BEA3646
:1045DA00E96EB50EE926060EEA22EE50EFCFEAFFA3
:1045EA00E96E400EEE16EE6AEE6AEE6AFE0EEA6AB0
:1045FA00DB34FE0BEA36E96EB50EE926060EEA2230
:10460A00EE50EFCFEAFFE96EEE7CFE0EEA6ADB348B
:10461A00FE0BEA36E96EB50EE926060EEA22EF74BB
:10462A00400E476EFE0EEA6ADB34FE0BEA36E96E8E
:10463A00B50EE926060EEA22EE50EFCFEAFFE96E42
:10464A004750EF16FE0EEA6ADB34FE0BEA36E96ED5
:10465A00B50EE926060EEA22EE50EFCFEAFFE96E22
:10466A00EF7CE552E7CFD9FF12000601D85154E199
:10467A000601010ED86F0601D9514EE10601010E5D
:10468A00D96F020E0601BC5D0DE1B5C6E9FFB6C6DB
:10469A00EAFFEE52EF6AB5C6E9FFB6C6EAFFC80EF0
:1046AA00EF6E3AD00601BC0537E10601CF6BABC607
:1046BA00E9FFACC6EAFFEE52400EEF6EABC6E9FF69
:1046CA00ACC6EAFF020EE926000EEA22300EEE6EB2
:1046DA00040EED6EABC6E9FFACC6EAFF840EEF6EC0
:1046EA000601010ECF6FADC6E9FFAEC6EAFFEE5274
:1046FA00400EEF6EADC6E9FFAEC6EAFF020EE9262E
:10470A00000EEA22300EEE6E040EED6EADC6E9FF23
:10471A00AEC6EAFF800EEF6E12000601DA6B0601E2
:10472A00DB6B020E0601BC5D1AE1ADC6E9FFAEC63F
:10473A00EAFFEE52400EEF6EADC6E9FFAEC6EAFFE3
:10474A00020EE926000EEA22380EEE6E040EED6E17
:10475A00ADC6E9FFAEC6EAFFC80EEF6E20D006016D
:10476A00C0510401365D0601C1510401375904E202
:10477A0036C4C0F637C4C1F6DBD8B5C6E9FFB6C63B
:10478A00EAFF020EE926000EEA22380EEE6E040E49
:10479A00ED6EB5C6E9FFB6C6EAFFC80EEF6E1200A7
:1047AA00D9CFE6FFE1CFD9FF020EE126000EDE6E79
:1047BA00040EDD6EFD0EDB50E824496EFE0EDB5062
:1047CA00040DF3504924040DF3CF47F0F4CF48F019
:1047DA00D9CFE9FFDACFEAFF4750EE264850ED225B
:1047EA00DECFE9FFDDCFEAFFEF9EFD0EDB500FE1E2
:1047FA00FE0EEA6ADB34FE0BEA36E96EAF0EE926F4
:10480A00060EEA22DECFEEFFDDCFEDFF0ED0FE0E62
:10481A00EA6ADB34FE0BEA36E96EB50EE926060EC5
:10482A00EA22DECFEEFFDDCFEDFFDECFE9FFDDCFFF
:10483A00EAFFEF9CDECFE9FFDDCFEAFF040EE926AF
:10484A00000EEA22EF8C020EE15C02E2E16AE55216
:10485A00E16EE552E7CFD9FF120065980601BFBFA6
:10486A002FD00601C4AF0CD00601020EBC6F0601A0
:10487A00DB5101E152DF0601D96B0601D86B1FD06B
:10488A00ADC6E9FFAEC6EAFFEE52400EEF6EADC608
:10489A00E9FFAEC6EAFF020EE926000EEA22300E52
:1048AA00EE6E040EED6EADC6E9FFAEC6EAFF8C0EE3
:1048BA00EF6EB5C6E9FFB6C6EAFF840EEF6E37D0D3
:1048CA00040130AF10D00601010EBC6F0601DA51A7
:1048DA0001E123DF0601D96B0601D86B0601D75126
:1048EA0001E1C3DE24D00601020EBC6FADC6E9FFAA
:1048FA00AEC6EAFFEE52400EEF6EADC6E9FFAEC697
:10490A00EAFF020EE926000EEA22300EEE6E040ECF
:10491A00ED6EADC6E9FFAEC6EAFF840EEF6E060184
:10492A00D96B0601D86B0601D75101E19EDE120050
:10493A00D9CFE6FFE1CFD9FFE652400EDF6E06017E
:10494A00400EC05D000EC1590FE2C0C6DFFF06016E
:10495A00BB5104E10601010EBB6F06D00601BB057F
:10496A0003E10601020EBB6FDF50476E486A4750EB
:10497A000601C05D0601C06F48500601C159060113
:10498A00C16FB5C6E9FFB6C6EAFFEE52DFCFEFFF49
:10499A000601380EC96F040ECA6F0601BFB11BD0DB
:1049AA00DF5018E00601BDC6F6FFBEC6F7FFBD2BF5
:1049BA00000EBE230800F550E66E0601C9C6E9FFDF
:1049CA00CAC6EAFFC92B000ECA23E552E750EF6EAA
:1049DA00DF06E6D719D0DF5017E00601BDC6E9FFAA
:1049EA00BEC6EAFFBD2B000EBE23EF50E66E0601DF
:1049FA00C9C6E9FFCAC6EAFFC92B000ECA23E55297
:104A0A00E750EF6EDF06E7D7E552E552E7CFD9FF69
:104A1A001200D9CFE6FFE1CFD9FF020EE126ABC6DD
:104A2A00E9FFACC6EAFFEE52EFCFDFFFDFCF47F078
:104A3A0047500601C55D000EC65902E2C5C6DFFF32
:104A4A00DF50476E486A47500601C55D0601C56FCB
:104A5A0048500601C6590601C66F010EDB6ADF50CF
:104A6A00F36E010EDBCFF4FFF350F45C17E2010E94
:104A7A00DB50EA6A380FE96E040EEA22EF50E66E5E
:104A8A000601C2C6E9FFC3C6EAFFC22B000EC32352
:104A9A00E552E750EF6E010EDB2AE1D70601000E60
:104AAA00D880C555000EC65528E2ADC6E9FFAEC688
:104ABA00EAFFEE52400EEF6EADC6E9FFAEC6EAFF60
:104ACA00020EE926000EEA22380EEE6E040EED6E94
:104ADA00ABC6E9FFACC6EAFFEF50400B07E1ADC633
:104AEA00E9FFAEC6EAFFC80EEF6E06D0ADC6E9FF13
:104AFA00AEC6EAFF880EEF6E2AD0ADC6E9FFAEC693
:104B0A00EAFFEE52400EEF6EADC6E9FFAEC6EAFF0F
:104B1A00020EE926000EEA22300EEE6E040EED6E4B
:104B2A00ADC6E9FFAEC6EAFF840EEF6E0601C751B5
:104B3A00C81107E005D0C8C6FAFF0601C751F96EC9
:104B4A00FADF0601C49F0601D75101E18EDD020E8C
:104B5A00E15C02E2E16AE552E16EE552E7CFD9FF94
:104B6A001200D9CFE6FFE1CFD9FFE6520601BF8F87
:104B7A00020EE66EE66AE66A270EE66E0F0EE66E2D
:104B8A00DFEC3FF0476E050EE15E4750300EE66EF1
:104B9A00E66AE66A000EE66E040EE66EDFEC3FF0A9
:104BAA00476E050EE15E4750658CDF6A030EDF5CD7
:104BBA0010E2DF50EA6AD00FE96E060EEA22EF6AC7
:104BCA00DF50EA6AD30FE96E060EEA22EF6ADF2A9D
:104BDA00EDD7010EE66EE66AE66AAA0EE66E060EE4
:104BEA00E66EDFEC3FF0476E050EE15E4750659CCE
:104BFA000601080EB56F040EB66F0601000EAB6F04
:104C0A00040EAC6FABC6ADF6ACC6AEF632C4A9F6AE
:104C1A000601A95104E10601100EA86F13D0010E76
:104C2A00E66EE66AA90EE66E060EE66E010EE66E00
:104C3A00E66A40EC3FF0476E060EE15E4750060119
:104C4A00200EA86FE552E552E7CFD9FF1200800E79
:104C5A000401305D61E10601C00EBF6F04013351EA
:104C6A00030A35E0010A0DE0030A01E052D0060109
:104C7A00F00EBD6F800EBE6F120E0601C06FC16BC3
:104C8A004BD004013251F66EF76AD890F636F736F1
:104C9A00770EF626810EF7220900F5CFBDF60A0037
:104CAA00F5CFBEF6020E0601F76ABD25F66EBE51B5
:104CBA00F7220800F5CFC0F6030E0601F76ABD25F4
:104CCA00F66EBE51F7220800F5CFC1F625D0030EC5
:104CDA000401325D1BE204013251F66EF76AD89084
:104CEA00F636F736790EF626810EF7220900F5CF49
:104CFA00BDF60A00F5CFBEF6BDC6F6FFBEC6F7FF83
:104D0A000800F5500601C06FC16B02D00601BF6BE7
:104D1A0003D00601BF6B00D01200D9CFE6FFE1CF66
:104D2A00D9FF020EE1260401386B0401396B040134
:104D3A0030511F0B020A12E0030A0DE0010A01E0DA
:104D4A0045D00601BF8F040138810601CB0502E177
:104D5A00040138833BD00601BF8F38D00601BF8FCC
:104D6A00040134BF11D0040134510F0BE96EEA6A11
:104D7A00D890E936EA36AF0EE926060EEA22EECFD9
:104D8A00DEFFEDCFDDFF10D0040134510F0BE96EC9
:104D9A00EA6AD890E936EA36B50EE926060EEA221C
:104DAA00EECFDEFFEDCFDDFFDECFE9FFDDCFEAFF9D
:104DBA00EF50800B0AE0DECFE9FFDDCFEAFFEF50CC
:104DCA00040B03E00401010E386F00D00601BFAFE7
:104DDA000AD00601380EBD6F040EBE6F0601BF81F0
:104DEA000601020EC06F020EE15C02E2E16AE552C0
:104DFA00E16EE552E7CFD9FF12000F0126A116D0C6
:104E0A00ABC6E9FFACC6EAFFEF5080080DE1B5C6B4
:104E1A00E9FFB6C6EAFFEF50840806E1ABC6E9FF30
:104E2A00ACC6EAFF8C0EEF6E0F012691629A120051
:104E3A000F013685629865820601010ECC6F000E5D
:104E4A00E66EE66A000EE66EE66A750EE66EE66ADB
:104E5A0040EC3FF0476E060EE15E47501200060135
:104E6A00CC6B000EE66EE66A000EE66EE66A740E1B
:104E7A00E66EE66A40EC3FF0476E060EE15E47508A
:104E8A0065920F01369562A402D06294FCD7120093
:104E9A00D9CFE6FFE1CFD9FFE65206012D0ED66F34
:104EAA00FD0E0601CD1558E17E0E0601CD15E8402E
:104EBA007F0B040DF3CFABF6F4CFACF6000E060170
:104ECA00AB27040E0601AC23ABC6ADF6ACC6AEF6F4
:104EDA000601AD75ABC6E9FFACC6EAFFEF503C0B65
:104EEA00E842E8420D0836E1DF6A080EDF5C24E298
:104EFA00ABC6E9FFACC6EAFF020EE926000EEA22BB
:104F0A00EE50EFCFEAFFE96EEF50E66EDF50EA6A45
:104F1A00300FE96E040EEA22E552E750EF6EABC697
:104F2A00E9FFACC6EAFF020EE926000EEA22EE2AE3
:104F3A00000EEF22DF2AD9D7ABC6E9FFACC6EAFFDB
:104F4A00020EE926000EEA22300EEE6E040EED6E17
:104F5A000ED801D047D806D0FD0E0601CD1504089B
:104F6A0001E168D8E552E552E7CFD9FF1200060100
:104F7A00BB6B0601D76B0601DA6B0601DB6B060118
:104F8A00CF6B0601BC6BB5C6E9FFB6C6EAFFEF9E5A
:104F9A000601B575B5C6E9FFB6C6EAFFEF9E06017A
:104FAA00B575ADC6E9FFAEC6EAFFEF9E0601BF6B57
:104FBA000601C06BC16B0601C46B0601C56BC66BEB
:104FCA009BD8000EE66EE66A000EE66EE66A030EEF
:104FDA00E66EE66A40EC3FF0476E060EE15E475029
:104FEA003CDC1200020E0601BC5D02E112DD21D09A
:104FFA000601BC6B0601CF511AE1ADC6E9FFAEC688
:10500A00EAFFEE52400EEF6EADC6E9FFAEC6EAFF0A
:10501A00020EE926000EEA22300EEE6E040EED6E46
:10502A00ADC6E9FFAEC6EAFF8C0EEF6E02D00601EE
:10503A00CF6B1200D9CFE6FFE1CFD9FFE652B5C652
:10504A00E9FFB6C6EAFFEF50400B01E0010EDF6E42
:10505A000601B575080E0601A85D0CE132C438FFD9
:10506A000F01385104E00601100EA86F03D00601A3
:10507A00040EA86F0601BC0528E1B5C6E9FFB6C64D
:10508A00EAFF020EE926000EEA22380EEE6E040E40
:10509A00ED6E4EDC020E0601BB5D07E1B5C6E9FF07
:1050AA00B6C6EAFF840EEF6E0FD0DF5007E1B5C631
:1050BA00E9FFB6C6EAFFC80EEF6E06D0B5C6E9FF2D
:1050CA00B6C6EAFF880EEF6E12D00601C4AF0DD045
:1050DA000601C751C81107E005D0C8C6FAFF060184
:1050EA00C751F96EFADF0601C49F0601BC6BE5528F
:1050FA00E552E7CFD9FF120004013051600BE842B4
:10510A00E842E842E842E842000901E064D00401CA
:10511A0031510C0A5FE00B0A4DE00C0A3FE0010A2C
:10512A002AE00B0A26E0020A24E0030A20E0080A21
:10513A0011E0010A0DE00F0A09E0030A01E04AD072
:10514A000601BF8F0601080EA86F45D080DD43D047
:10515A0008DD41D00601A90EBD6F060EBE6F06011D
:10516A00BF810601010EC06F0601BF8F34D0D5DDA5
:10517A0032D032D830D0040134510601BD6FBE6B33
:10518A00AA0E0601BD27060E0601BE230601BF812F
:10519A000601010EC06F0601BF8F1DD00601BF8F29
:1051AA0004013451EA6AAA0FE96E060EEA2232C4F1
:1051BA00EFFF11D0000EE66EE66A000EE66EE66AB2
:1051CA00020EE66EE66A40EC3FF0476E060EE15EBE
:1051DA00475001D000D01200D9CFE6FFE1CFD9FF66
:1051EA00050EE1260401320511E1040130511F0BBD
:1051FA0000090CE10601BF8F030E0401315D04E1D1
:10520A000601010ECB6F02D00601CB6B04013251AD
:10521A0001E031D1040130511F0B020801E02BD10A
:10522A00040134510F0B000901E125D10401345165
:10523A000F0B020801E21FD1200E0601A85D01E052
:10524A001AD10601BF8F040134BF1CD004013451A6
:10525A000F0BE96EEA6AD890E936EA36AF0EE9260C
:10526A00060EEA22EECFDEFFEDCFDDFF0401345158
:10527A000F0BEA6AD30FE96E060EEA22020EEFCF8F
:10528A00DBFF1BD0040134510F0BE96EEA6AD89098
:10529A00E936EA36B50EE926060EEA22EECFDEFF39
:1052AA00EDCFDDFF040134510F0BEA6AD00FE96E2E
:1052BA00060EEA22020EEFCFDBFFD950020FE96E8B
:1052CA00DACFEAFFEF50010B03E1000EDB9401D0C5
:1052DA00DF84040134BF11D0040134510F0BE96E8D
:1052EA00EA6AD890E936EA36AF0EE926060EEA22CD
:1052FA00DECFEEFFDDCFEDFF10D0040134510F0BEE
:10530A00E96EEA6AD890E936EA36B50EE926060E5B
:10531A00EA22DECFEEFFDDCFEDFF030E0401315DA1
:10532A0026E1DECFE9FFDDCFEAFFEF50800B16E082
:10533A00040134BF0AD0040134510F0BEA6AD30FB7
:10534A00E96E060EEA22EF8209D0040134510F0BEE
:10535A00EA6AD00FE96E060EEA22EF82840E476EE1
:10536A00DECFE9FFDDCFEAFF4750EF1284D0DF74CA
:10537A00DECFE9FFDDCFEAFFEF50800B1BE0DECF87
:10538A00E9FFDDCFEAFFEF9EDECFE9FFDDCFEAFFDF
:10539A00EF8C020EE66EE66ADECFE6FFDDCFE6FFB1
:1053AA00050EE66EE66A40EC3FF0476E060EE15ED9
:1053BA00475005D0DECFE9FFDDCFEAFFEF8CDF747F
:1053CA00D950020FE96EDACFEAFFEF50020B07E17C
:1053DA00DECFE9FFDDCFEAFFEF50800B2FE00401BB
:1053EA0034BF0AD0040134510F0BEA6AD30FE96EB5
:1053FA00060EEA22EF9209D0040134510F0BEA6A31
:10540A00D00FE96E060EEA22EF923B0E476EDECF10
:10541A00E9FFDDCFEAFF4750EF16020EE66EE66AB5
:10542A00DECFE6FFDDCFE6FF050EE66EE66A40EC6C
:10543A003FF0476E060EE15E475008D03B0E476EBE
:10544A00DECFE9FFDDCFEAFF4750EF160401345102
:10545A000F0B486A260F476E0F0E4822030E47C0ED
:10546A00DBFF040E48C0DBFF030EDBCFE9FF040EAF
:10547A00DBCFEAFFEF90050EE15C02E2E16AE5525A
:10548A00E16EE552E7CFD9FF1200DACFE4FFE2CFAF
:10549A00DAFFE9CFE4FFEACFE4FFE652D9CFE6FF2D
:1054AA00E1CFD9FFE6529EA0ADD19E908E0ECE6E70
:1054BA00CF6809C080F20201816B0201010E826F7E
:1054CA000A500B100C100D1013E00A06000E0B5AAE
:1054DA000C5A0D5AD880000E0A54000E0B54190E9D
:1054EA000C54000E0D5404E20A6A0B6A0C6A0D6A27
:1054FA000A500B100C100D1002E00201826B00041E
:10550A0001E0A7D00550061004E10750081001E198
:10551A009FD00201DB510BE109A202D08C8E01D08F
:10552A008C9E09A602D08C8A01D08C9A0DD00201D9
:10553A00DB050AE109A202D08B8401D08B9409A66B
:10554A0002D0898401D089940550061021E01450B4
:10555A000124146E15500220156E000ED8801454C2
:10556A00800E155413E214C014F015C015F0000E85
:10557A00145E800E155A010E020180110201806F1D
:10558A000201010E816F0506000E065A0201826BA6
:10559A000750081021E016500324166E17500420F5
:1055AA00176E000ED8801654800E175413E216C0D8
:1055BA0016F017C017F0000E165E800E175A040E6A
:1055CA00020180110201806F0201010E816F07063C
:1055DA00000E085A0201826B0201815139E0020170
:1055EA00DB5107E1020180B18C8C020180B58C8805
:1055FA0009D00201DB0506E1020180B18B8C0201B0
:10560A0080B5898A00000000000000000000000048
:10561A000000000000000000000000000000000080
:10562A000000000000000000000000000000000070
:10563A00000000000000000000000201DB5103E14D
:10564A008C9C8C9805D00201DB0502E18B9C899A1F
:10565A009DD0030E005C01E099D00201E85101E1FE
:10566A0077D01104DF6E0E500F1037E1DF50EA6A6F
:10567A00310FE96E0E0EEA22EF500E01EA6AAC25EE
:10568A00E96EAD51EA22EF6AEA6ADF34FE0BEA36C6
:10569A00E96E790EE9260E0EEA22EE6AED6AEA6AE8
:1056AA00DF34FE0BEA36E96E490EE9260E0EEA22CF
:1056BA00EE6AED6ADF50EA6A310FE96E0E0EEA22EF
:1056CA00EF6AEA6ADF34FE0BEA36E96E010EE92672
:1056DA000E0EEA22EE6AED6A3BD0EA6ADF34FE0B6E
:1056EA00EA36E96E790EE9260E0EEA2212C0EEFFBC
:1056FA0013C0EDFFEA6ADF34FE0BEA36E96E490EA3
:10570A00E9260E0EEA220EC0EEFF0FC0EDFFDF50B3
:10571A00EA6A310FE96E0E0EEA2210C0EFFFEA6A5A
:10572A00DF34FE0BEA36E96E010EE9260E0EEA2296
:10573A00EE50ED100DE1EA6ADF34FE0BEA36E96E4F
:10574A00010EE9260E0EEA220EC0EEFF0FC0EDFF93
:10575A000E01B651105C1AE10E01B0510E1802E1A9
:10576A00B1510F180AE10201010EDC6F0201D86B78
:10577A000201E75101E08A9809D00201DC6B0201BB
:10578A00010ED86F0201E75101E08A8802018251B5
:10579A002DE0006A18502AE184C200F085C201F0A7
:1057AA0086C202F087C203F088C204F089C205F0FB
:1057BA008AC206F08BC207F08CC208F08DC209F0CB
:1057CA008EC20AF08FC20BF090C20CF091C20DF09B
:1057DA0092C20EF093C20FF094C210F095C211F06B
:1057EA0096C212F097C213F0010E186E8050800B09
:1057FA0006E00201E35106E08150010B03E10201D8
:10580A00010EE26FE552E552E7CFD9FFE552E5CF47
:10581A00EAFFE5CFE9FFE5CFDAFF1100D9CFE6FFCE
:10582A00E1CFD9FFE652DF6ADFCF47F0020EE76E1B
:10583A004718E8AE02D0E73402D0E750475C1FE2CF
:10584A00DFCFE9FFEA6AE9BEEA68D890E936EA36C4
:10585A00010EE926000EEA22010EEE6EED6ADFCF96
:10586A00E9FFEA6AE9BEEA68D890E936EA36050E3F
:10587A00E926000EEA22EE6AED6ADF2AD5D7006A27
:10588A00096A0A6A0B6A0C6A0D6A0E6A0F6A106A5A
:10589A00116A126A136A010E186ECD92CD9ECD9CC2
:1058AA00CD8ACD98CD96CD948E0ECE6ECF68CD8012
:1058BA009F809E909D8092809F9C010EE66EE66A74
:1058CA008AEC13F0E552E552010EE66E0B0EE66E17
:1058DA008AEC13F0E552E5528D8496948D82969265
:1058EA00898C929C8D8096908B8294928C9C959CAC
:1058FA008C9E959E8C9895988C9A959A949E828E59
:10590A00000000000000000000000000000000008D
:10591A00000000000000000000000000000000007D
:10592A00000000000000948E829E0201010EE76FC3
:10593A000201010EE86F8A9893980201010ED86F4E
:10594A000201DB6B0201010EDC6F0201E16B020155
:10595A00DD6BDE6BDF6BE06B0201E26B9380F19E25
:10596A000201010EE36F939681960201010EE96F1F
:10597A00E552E552E7CFD9FF1200D9CFE6FFE1CFD2
:10598A00D9FF030EE126DF6A010EDB6A020EDB6A2B
:10599A00E66AD9CFE6FFDACFE6FF010EE66EB3EC90
:1059AA001BF0E552E552E552E552E66AD950010F7D
:1059BA00E66E000EDA20E66E030EE66EB3EC1BF01E
:1059CA00E552E552E552E552255001E01ED1DF04C9
:1059DA003FE1D950010FE96EDACFEAFFEE50ED1040
:1059EA0017E10201010EE76F0201E86B000EE66E95
:1059FA00E66A000EE66EE66AB6CEE6FF000EE66ED0
:105A0A00E66AE0EC3CF0476E070EE15E475016D0BE
:105A1A00D950010FE96EDACFEAFF010EEE1801E163
:105A2A00ED5006E10201E76B0201010EE86F06D0B4
:105A3A000201010EE76F0201010EE86F000EE66E29
:105A4A00E66ADCC2E6FF66DBE552E552E552DBD0E8
:105A5A00020EDF5C4BE1D950010FE96EDACFEAFFA3
:105A6A00EE50ED100FE10201DB6B96909492959C3B
:105A7A00959E9598959A94849284948C928A95820C
:105A8A00928233D0D950010FE96EDACFEAFF010EC4
:105A9A00EE1801E1ED5010E10201010EDB6F968074
:105AAA009482958C958E9588958A94949294949CD8
:105ABA00929A9592929219D0D950010FE96EDACF43
:105ACA00EAFF020EEE1801E1ED500FE10201020EAB
:105ADA00DB6F96809482958C958E9588958A9484AE
:105AEA009284948C928A958292828DD0040EDF5C85
:105AFA0007E1010EDBCFB0FE020EDBCFB1FE83D091
:105B0A00050EDF5C07E1010EDBCFAEFE020EDBCF36
:105B1A00AFFE79D0080EDF5C16E1D950010FE96EAD
:105B2A00DACFEAFF180ED880EE54000EED5407E2E1
:105B3A00180EF36E010EF3CFDBFF020EDB6A010EC5
:105B4A00DBCFAAFE60D0090EDF5C16E1D950010F47
:105B5A00E96EDACFEAFF060ED880EE54000EED5455
:105B6A0007E2060EF36E010EF3CFDBFF020EDB6ACD
